S01E000052544F532D4F4C45442D58706C61696E65642D50726F2E73726563AD
S214400000682E4020D11B4000CF1B4000CF1B400035
S214400010CF1B4000CF1B4000CF1B4000000000001D
S214400020000000000000000000000000A91F400083
S214400030CF1B40000000000049204000B120400097
S214400040CF1B4000CF1B4000CF1B4000CF1B4000C3
S214400050CF1B4000CF1B4000CF1B4000CF1B4000B3
S214400060CF1B400000000000C1184000D5184000DB
S214400070E9184000CF1B4000CF1B4000CF1B40007C
S214400080FD18400011194000CF1B4000CF1B400018
S214400090CF1B4000CF1B4000CF1B4000CF1B400073
S2144000A0CF1B4000CF1B4000CF1B4000CF1B400063
S2144000B0CF1B4000CF1B4000CF1B4000CF1B400053
S2144000C0CF1B4000CF1B4000CF1B4000CF1B400043
S2144000D000000000CF1B400000000000CF1B400087
S2144000E0CF1B4000CF1B4000CF1B4000CF1B400023
S2144000F0CF1B4000CF1B4000CF1B4000CF1B400013
S214400100CF1B4000CF1B4000CF1B4000CF1B400002
S214400110CF1B400000000000000000000000000070
S214400120CF1B4000CF1B4000CF1B4000CF1B4000E2
S214400130CF1B400000000000CF1B4000CF1B4000FC
S21440014010B5054C237833B9044B13B10448AFF3CC
S21440015000800123237010BDD80940200000000015
S2144001608CC740000C4B43B10C480D4910B5AFF35B
S21440017000800C48036823B910BD0A48036833B9A9
S2144001807047094B002BF7D0BDE810401847064B88
S214400190002BF5D0184700BF000000008CC7400079
S2144001A0DC0940208CC74000000000004FF07E5322
S2144001B00361002343618361C361036243628362D8
S2144001C0012280F82C200A4A02638363C3630364D7
S2144001D043648364C364002380F85030436580F8EA
S2144001E0583080F85930C36580F86030704700BF9B
S2144001F00000204138B52DED028B04460D4691EDAA
S214400200008A80ED008AD1ED017AF5EE407AF1EE73
S21440021010FA01D0CB6803BB234B6360D5ED027A5E
S214400220F5EE407AF1EE10FA01D0EB6843BB1E4B78
S214400230A360EB68E36094F82C300BB984ED0C8A2D
S214400240F2EE047A77EEC87AF0EE086A87EEA67A7F
S21440025084ED0D7ABDEC028B38BD9FED147A67EEC7
S214400260877A17EE900A124B9847F6EE007A07EE1A
S214400270100A67EE277A67EEA77AC4ED017ACDE7D3
S2144002809FED0A7A67EE877A17EE900A084B9847F2
S214400290F6EE007A07EE100A67EE277A67EEA77A40
S2144002A0C4ED027AC5E700BFFFFF7F7F35FA8E3C7C
S2144002B02D46400030B585B00546064B0FCB8DE841
S2144002C00F0069462846044B98472846034B9847F4
S2144002D005B030BDB0BC4000F5014000AD01400067
S2144002E010B4044610310FC984E80F0020465DF86C
S2144002F0044B704710B52DED048B044608EE101ADB
S21440030090ED077AD0ED067A67EEA76AB6EE009AC9
S21440031079EE666A27EE076AD0ED045A27EE257A0C
S214400320D0ED055A67EEA57A76EEC66A16EE901AB6
S21440033077EE277A17EE900A2F4B9847DFED2F8AF5
S21440034068EE288A07EE900A77EEE88A68EE898A91
S21440035018EE900A2A4B984708EE100A18EE900AB4
S214400360284B984707EE900AB1EE675A94ED046A18
S214400370D4ED055AD4ED067AD4ED074A9FED227A9D
S21440038025EE874A67EE873A26EE073A24EE877AC6
S21440039068EE066A76EEC46A76EEE36A65EE242A6E
S2144003A076EEE26AC4ED046A68EE256A76EE836A03
S2144003B076EE876A67EE852A76EEE26AC4ED056ACF
S2144003C068EE277A77EEC77A77EE837A65EE855AB7
S2144003D077EEA57AC4ED067A28EE248A38EE238A8C
S2144003E038EE448A26EE056A38EE068A84ED078A99
S2144003F0BDEC048B10BD00BF0548400035FA8E3C6E
S214400400B54540002D4640000000000070B52DED7B
S2144004100A8B8EB0044603A880E80E009DED229A13
S21440042004F120031CAA07CA83E8070094F82C307E
S214400430BBB1D4ED0D7A29EE277AD4ED0C7A77EE5F
S214400440C77AC4ED0C7A94ED007AF4EEC77AF1EEF2
S21440045010FA06D584ED0C7A002384F82C3084F804
S214400460583094ED056AD4ED079A94ED047AD4EDAD
S21440047006AA66EE296A67EE2A7A36EEE7BA69EE8B
S214400480AAAA26EE076A7AEE86AA27EE077AF6EE3C
S214400490007A37EE677A69EEA99A77EE299A0123B1
S2144004A084F850309DED1C8A9DED1DAADDED1E8A18
S2144004B0B5EE40AAF1EE10FA18BF0023B5EE408A1A
S2144004C0F1EE10FA03F0010318BF00238BB3F5EEEC
S2144004D0408AF1EE10FA2CD19FEDE88AF0EE488A79
S2144004E0B0EE48AA012384F85930DDED1FBA9DEDE1
S2144004F020CADDED21CAB5EE40CAF1EE10FA18BFAB
S2144005000023F5EE40BAF1EE10FA03F0010318BFEF
S2144005100023002B00F08980F5EE40CAF1EE10FA79
S21440052040F08380DFEDD59AF0EE696AB0EE697AE6
S2144005300DE1626DE3689A4259D868EE087A2AEE71
S2144005400A7A77EE877A28EEA87A77EE877ACC4BC7
S21440055017EE902AA3EB620306EE903A9FEDC97A17
S21440056067EE877A67EEA67A67EEA67A9FEDC67A3A
S21440057077EE677A67EEA67A28EE278A2AEE276A0B
S21440058068EEA78A29EE867A6AEEA87A37EE67AAD8
S2144005906BEE288A69EE886A78EEE68A2AEE888AC2
S2144005A02BEE066A38EE468A84ED0EAAC4ED0F8A14
S2144005B084ED108A94F82C3073B96AEE0A7A28EEE5
S2144005C0A87A77EE877A48EE087A94ED017AF4EEC8
S2144005D0C77AF1EE10FA1ED8002384F85030636DC7
S2144005E0092B8CBF0A2200229B1A63657AE707AE66
S2144005F004F1100595E80F0086E80F002046A34B4F
S214400600984796E80F0085E80F00002363650123AE
S21440061084F8583091E7636D013363659FED978AA0
S214400620F0EE488AB0EE48AA5CE7002384F86030D3
S214400630E26DE3689A4200F22D81D4ED056A94EDAE
S214400640067AD4ED044AD4ED075A26EE875A64EE6D
S214400650A57A35EE275A64EEA47AB6EE006A77EEAF
S214400660C67A27EE076A37EE866A27EE257A66EE62
S214400670A46A77EE664A6AEEAC5A69EE8C7A75EEF4
S214400680E75A69EEAB9A6BEE2CCA79EEEC9A6BEEB3
S2144006900C6A6AEEAB7A76EEE76A25EEA57A69EEE4
S2144006A0A97A37EE277A66EEA67A37EE277A744B23
S2144006B017EE102AA3EB620304EE103ADFED717AD0
S2144006C027EE277A27EE047A27EE047ADFED6E7A55
S2144006D077EEC77A67EE847A67EEA55A67EEA99AF0
S2144006E067EEA67A24EEA97A66EE276A37EE667A31
S2144006F065EE277A64EEA56A77EEE66A66EE257AB8
S21440070065EE299A77EEE99A84ED117AC4ED126A7D
S214400710C4ED139A94F82C307BB967EE077A26EE30
S214400720A66A77EE867A49EEA97A94ED026AF4EEE6
S214400730C67AF1EE10FA00F2C880002384F85930E9
S214400740E36D092B8CBF0A2200229B1AE365D4ED89
S2144007500C7A37EE0A7A27EE277A9FED4D6ADDED62
S214400760035A65EE865A37EE257A27EE097A78EEF2
S214400770A66A66EEA76ADDED048A68EE868A76EE9D
S214400780A86A66EE896A38EE298A28EE278ADDED61
S214400790057A67EE867A38EE278A68EE097A94ED0F
S2144007A0043AD4ED053A94ED064A94ED075A63EEC2
S2144007B0C75A26EE846A75EEC65A27EE856A75EEE7
S2144007C0C65A75EE835A67EE034A27EE846A74EE7D
S2144007D0864A26EE856A74EEC64A74EEA34A26EE2C
S2144007E0836A67EEA32A36EE626A67EE052A36EE1D
S2144007F0226A36EE046A67EE837A66EEA36A77EE7E
S214400800A67A27EE047A77EEC77A77EE857A25EED3
S214400810A57A64EEA46A37EE267A66EE066A37EE66
S214400820267A67EEA76A37EE267A154B17EE102A19
S214400830A3EB620305EE103ADFED126A27EE267A46
S21440084027EE057A27EE057ADFED0F6A36EEC77A91
S21440085027EE057A67EE255AC4ED045A67EE246AF9
S214400860C4ED056A27EE066A84ED066A27EE277A07
S21440087084ED077A0EB0BDEC0A8B70BD0000000018
S21440088012141F5F12D3363FFF51D83FAD014000D0
S21440089035FA0E3C8DED0BBACDED0CAACDED0D9A8A
S2144008A020AB93E803008DE803001F9B0EAA12E9D5
S2144008B007000B4DA847014620460A4B98470023A1
S2144008C0E365012384F86030B7E6E36D0133E36502
S2144008D0DFED059AF0EE696AB0EE697A37E700BF59
S2144008E049094000F50240000000000030B591B0D4
S2144008F0054609AC84E80E0000230D930E930F9333
S214400900179B069303AB10AA12E9070083E807007B
S21440091014AB93E807008DE8070094E80E002846DD
S214400920074CA04795F82C3013B195F858300BB1CA
S21440093011B030BD00212846024B9847F8E700BF6B
S2144009400D044000F502400082B000B585B00DF1C0
S214400950100E0EE907000793DDED013ADDED026A61
S2144009609DED034ADDED077A9DED085A9DED096A37
S21440097066EE265A24EE057A75EEC75A24EE277A96
S21440098026EE236A37EE466A25EE235A67EEA67AA7
S21440099035EE675A25EEA57A66EE067A37EE277A62
S2144009A065EE057A37EE277A2D4B17EE102AA3EB25
S2144009B0620203EE102ADFED2B2A27EE227A27EE7C
S2144009C0037A27EE037ADFED284A34EEC77A67EEDD
S2144009D0037A67EEA55A27EE866A67EE857A24EE96
S2144009E0065A26EEA77A35EE475A67EEA37A24EEE5
S2144009F0254A77EEC47A66EEA56A26EE236A76EE38
S214400A00C66A25EE057A67EEA77A77EE277A66EE0F
S214400A10A66A77EEA67A17EE902AA3EB620307EE55
S214400A20103A67EEA27A67EE877A67EE877A74EEB8
S214400A30E77A67EE877A67EE857A17EE901A15EEB4
S214400A40900A0A4B9847DFED0A7A07EE100A67EEDF
S214400A50277A17EE900A05B05DF804EB02B07047AF
S214400A6012141F5F12D3363FFF51D83F054840004F
S214400A70E02E654208B5074B984203D0064B984295
S214400A8004D008BD1520054B984708BD2A20034BC7
S214400A909847F6E70080004000800540451A400031
S214400AA0436823F4702343604368090401F47021CB
S214400AB019434160704730B443F69924056915F0F0
S214400AC0020F03D1013CF9D101200CE0446814F038
S214400AD0020F06D0120402F4702211430BB141F00B
S214400AE08071C160002030BC704732B900EB810095
S214400AF0036B23F001030363704700EB8100036B35
S214400B0043F001030363704732B900EB8100036B87
S214400B1023F002030363704700EB8100036B43F04E
S214400B20020303637047042A03D06AB1082A16D02A
S214400B30704700EB8100036B23F008030363036BED
S214400B4043F004030363704700EB8100036B23F01C
S214400B5008030363036B23F004030363704700EB4F
S214400B608100036B43F008030363E1E700EB810178
S214400B700B6B23F0F0030B630B6B1A430A6370474F
S214400B80431E1944B1FBF0F0431EFE2B94BF00B247
S214400B904FF0FF3070477AB110B4144600EB810135
S214400BA00B6B23F47F430B630A6B42EA04220A630F
S214400BB000205DF8044B70474FF0FF307047000050
S214400BC0284B99424BD8A3F57A5399422DD910B465
S214400BD0254CA4FB0234A40B033C244B0B449B0043
S214400BE0B2FBF3F2033AFF2C1DD900210131640811
S214400BF0FF2C01D90629F9D9FF2A07D9062905D895
S214400C0001315208FF2A01D90629F9D913029BB2AD
S214400C10090401F4E0210B43E4B2234303610020BE
S214400C205DF8044B70470021E6E74900B2FBF1F25D
S214400C30033AFF2A11D9002301335208FF2A01D96B
S214400C40062BF9D9110289B21B0403F4E0230B43A7
S214400C50D2B21A430261002070470023F2E7012017
S214400C60704700BF801A0600F11976050012FD3F56
S214400C7008B54FF0FF328262026A80220260026B41
S214400C800822026020220260042202600A68496844
S214400C90034B9847012814BF0020012008BD00BF21
S214400CA0C10B4000CA68002A4CD070B48C6800263D
S214400CB046604B681B0203F4407343F480530D7C3C
S214400CC02D0405F4FE052B434360C6604D685DB1B8
S214400CD00B78012D02DD4E7846EA0323022D04DD13
S214400CE0897841EA032300E00023C36001230360C0
S214400CF0022512E0056013F0020F1BD0036B237031
S214400D00036A13F0010FFBD0036A002070BC7047E3
S214400D10036B04F8013B013AF2D0036A13F4807F78
S214400D2014D147F23051012AE4D013F0020FEFD12C
S214400D30002AE5D0036A13F4807F05D10139F2D149
S214400D400920E3E7012070470520DFE70520DDE7BF
S214400D50CB68002B43D070B48C68002646600A7C73
S214400D60120402F4FE024D682D0205F440752A4333
S214400D704260C6604D685DB10A78012D02DD4E784E
S214400D8046EA0222022D04DD897841EA022200E08A
S214400D900022C26004E014F8012B4263013B0FD0EE
S214400DA0026A12F4807F1ED112F0040FF3D1026A59
S214400DB012F4807F15D112F0040FECD1002BF6D13F
S214400DC0036A13F4807F11D113F0040FF8D0022386
S214400DD00360036A13F0010FFBD0002004E00120FB
S214400DE07047052000E0052070BC70470520FBE7F3
S214400DF0014B1860704700BFF4094020024B1B6847
S214400E0003EBC01042547047F4094020024B1B6865
S214400E1003EBC010405C7047F40940202DE9F047D2
S214400E208418802C02DDC0F18004E2B222B3CD08E3
S214400E30A1EBC501012606FA01F1CEB2012B1DD069
S214400E40002B35D0022B17D10138C7B2D419E4B2E3
S214400E50DFF890A04FF00009DFF88C802146284646
S214400E60D04786EA00024B46D2B221462846C047C3
S214400E70013CE4B2BC42F1D1BDE8F0870138C7B2CC
S214400E80D419E4B2DFF85CA04FF00009DFF85880D0
S214400E9021462846D04746EA00024B46D2B2214673
S214400EA02846C047013CE4B2BC42F1D1BDE8F087D9
S214400EB00138C7B2D419E4B2DFF82880CE43DFF851
S214400EC0289021462846C04706EA00020023D2B2B0
S214400ED021462846C847013CE4B2BC42F1D1BDE8B1
S214400EE0F08700BF1D114000191040002DE9F8435F
S214400EF09DF820708BB11C46904606464D1EEDB2BE
S214400F002C44E4B2DFF818903B4642462146304631
S214400F10C847013CE4B2AC42F6D1BDE8F88300BF16
S214400F201D0E40002DE9F04F83B00446884691469A
S214400F309B465B7A9BF80820002100914946404634
S214400F40214DA8479BF8003013B103B0BDE8F08FA1
S214400F509BF80820D30812F0070F18BF01339BF800
S214400F6009A09BF80A70E71B17FB0AF717FB03F765
S214400F70DBF8043013FA87F71FE06400E4B201356B
S214400F80EBB29E4210D9EBB208EB0300C0B213F0AE
S214400F90070F08BF17F8014B14F0800FEDD0012261
S214400FA049460A4B9847E8E709F101095FFA89F98B
S214400FB00AF1FF3A1AF0FF0AC7D09BF80860002EE5
S214400FC0F2D000252C46DEE7ED0E4000B91040007A
S214400FD02DE9F843044690461D4689460D4F0E4679
S214400FE008E06A7A013242445FFA82F8B14614F861
S214400FF0013F6BB120780A28F3D00D28F7D02B4656
S21440100042464946B8472B7A99445FFA89F9EEE753
S214401010BDE8F883250F400070B504460D461646D9
S2144010201BB90D4B9847B04215D03246294620464C
S2144010300A4B984704F00F0040F0B000084CA04719
S214401040C5F3021040F01000A04705F00F00A0477F
S2144010503046044B984770BD0D0E4000FD0D4000D5
S21440106029114000491340002DE9F0410D480E4B30
S21440107098470E4B984740200D4B984700254FF019
S21440108001082F460B4E002443463A46E1B2284616
S214401090B0470134802CF7D10135EDB2042DF2D1A2
S2144010A0BDE8F081F8094020F10D4000691140008C
S2144010B02911400019104000C3092AD11F2928D8F9
S2144010C02DE9F04114460546CE08A1EBC6010122A3
S2144010D002FA01F75FFA87F8014630460D4B98470B
S2144010E00246012C09D064B1022C0ED000232946BA
S2144010F03046094CA047BDE8F08148EA0002D2B22B
S214401100F4E720EA0702D2B2F0E788EA0002D2B259
S214401110ECE770470D0E40001910400008B5014B33
S214401120984708BD0D0E400038B505460822094BC5
S2144011305A63094C01212046084B984701231A461A
S21440114029462046064CA0474FF4FD70054B98476D
S21440115038BD00BF00100E4000800040A10A40008D
S214401160B70A4000010040202DE9F843664D4FF491
S21440117000362E61C5F8A060644B08271F61C3F88F
S214401180A0706E66C5F890606E656E62C5F8806049
S2144011902A6F22F400322A676A6F22F400326A67A6
S2144011A05F66C3F890705F655F62C3F880701A6FC1
S2144011B022F008021A675A6F22F008025A671F6028
S2144011C02E601F632E63DFF87C8100234FF480027D
S2144011D04FF0805140464E4CA04700234FF400123B
S2144011E04FF080514046A04700234FF000724FF02A
S2144011F080514046A04700234FF480024FF0805174
S2144012004046A04700234FF400124FF0805140461E
S214401210A04700234FF000724FF080514046A04751
S2144012203C4C4FF00209C4F800904FF08008C4F8D8
S2144012300080636843F0010363603A46012120461C
S214401240354B9847002201212046344B98470022D0
S21440125001212046324B9847636823F002036360BF
S2144012600022012120462F4B9847636823F08003D5
S2144012706360636843F0100363602B492B482C4B34
S2144012809847C2B2012120462A4B984720462A4B0F
S2144012909847012323606E6340F6B830274CA0473A
S2144012A02E6340F6B830A0472E63A820244CA047B3
S2144012B01F20A047D320A0470020A0474020A0479B
S2144012C0A120A047C820A047DA20A0474846A0470C
S2144012D08120A0478F20A047A420A047A620A04753
S2144012E0D520A0474046A0478D20A0471420A047C1
S2144012F0DB20A0474020A047D920A047F120A047A8
S214401300AF20A047BDE8F88300120E4000100E4004
S2144013103117400000800040270B4000EB0A400099
S214401320090B40006D0B400080D1F00880841E0001
S214401330810B4000970B4000750A4000010040209A
S2144013402911400000140E4038B505460822094BC6
S2144013501A63094C01212046084B984701231A4638
S21440136029462046064CA0474FF4FD70054B98474B
S21440137038BD00BF00100E4000800040A10A40006B
S214401380B70A40000100402010B51048104B98475F
S2144013903E2100200F4B98470F4CA0470028FCD01A
S2144013A00E4B98470E4A0F4B9A620F4CA0470028A8
S2144013B0FCD002200D4B984700200D4B98470D4B14
S2144013C098470248024B984710BD00BF00A3E11162
S2144013D0A51D4000C1194000151A4000251A4000BE
S2144013E0013F182000060E40351A400025194000DF
S2144013F05D194000991C40002DE9F04180B90C462B
S2144014009046002A0FDD8F18084E094D3068214659
S2144014102B6898470134BC42F8D14046BDE8F0817D
S2144014204FF0FF38F9E78046F7E700BFF00D402061
S214401430E80D40200138022815D82DE9F0410E4627
S21440144014469AB10D46DFF838800C4FD8F80000A5
S21440145015F8011B3B68984700280ADBA81B013C8F
S214401460F4D1BDE8F0814FF0FF3070471046BDE83C
S214401470F0814FF0FF30BDE8F08100BFEC0D40201A
S214401480F00D4020F8B54FF400425C4B5A60BFF375
S2144014904F8FBFF36F8F5A4B0022C3F850225A69C2
S2144014A042F400325A61BFF34F8FBFF36F8FD3F8C9
S2144014B08070C7F34E3607F007000430C7F3C907FD
S2144014C0B7FA87FE0EF01F0EBFF34F8F4FF0FF3474
S2144014D004FA00FC06FA00F004FA0EF407FA0EFED0
S2144014E01D463A46734640EA0301C5F86012013A83
S2144014F02344B2F1FF3FF6D1013E6044B6F1FF3FD0
S214401500EFD1BFF34F8F3E4B5A6942F480325A6157
S214401510BFF34F8FBFF36F8F3A4A3B495160A1F5F7
S21440152080715160BFF34F8FBFF36F8FD3F8902217
S21440153022F00102C3F89022D3F8942222F001024E
S214401540C3F89422BFF34F8FBFF36F8F0A202F4C00
S214401550A0470B20A0470C20A0471020A0471120F2
S214401560A0472B4B4FF480721A61C3F8A0201A6331
S214401570A3F580634FF400625A61C3F8A0205A6610
S214401580C3F890205A651A62C3F88420196F21F474
S21440159000611967596F21F400615967C3F8C0208C
S2144015A0C3F8D420C3F8B0204FF400121A66C3F82C
S2144015B090205A655A62C3F88020196F21F40011B2
S2144015C01967596F21F4001159675A60114AD2F8C9
S2144015D0143143F01003C2F814310F4B10221A6630
S2144015E0C3F890205A655A62C3F88020196F114399
S2144015F01967596F114359675A60F8BD50180E4025
S21440160000ED00E0000C0E400C08005A451A400061
S21440161000120E400080084000100E40C0F88410B3
S21440162053004FF40042B2FBF3F2013AC2F30D020C
S214401630C0F88C207047016370474163704742642E
S214401640B1F1C05F3AD013D8B1F1006F25D0B1F1F7
S214401650805F0AD1036F13430367436F416F0B40AC
S21440166023EA02034367426070470029FBD1704774
S214401670B1F1205F21D009D8B1F1005FF3D1036FFB
S21440168013430367436F13434367ECE7B1F1405F8F
S21440169013D0B1F1605F10D0E5E710B4016F046F6E
S2144016A0D34321401C4619400167436F416F0B40AE
S2144016B02340436742605DF8044B7047036F016FF9
S2144016C00B4023EA02030367436F13434367CAE7AB
S2144016D0416412F0010F0DD1016612F00A0F0BD0D3
S2144016E0016212F0020F09D112F0080F08D0C0F8BC
S2144016F0841005E04166F0E74162F2E7C0F88010EA
S21440170041610160704710B4019C41644CB9016668
S2144017104BB101654AB94163016101605DF8044B14
S21440172070474166F4E74165F4E70163F4E700007B
S21440173070B582B0054616461C46B1F1005F14D01F
S2144017400AD9B1F1405F24D0B1F1605F21D0B1F148
S214401750205F17D000201AE0B1F1805F05D0B1F1CC
S214401760C05F02D0B1F1006FF4D132462846114B2B
S214401770984714F0010F02D12E66012007E06E66EE
S214401780012004E01A4631460B4B9847012002B030
S21440179070BD04F001030093C4F38003B1F1605FB1
S2144017A014BF0022012231462846044CA04701209F
S2144017B0EDE700BF3F164000D11640000717400037
S2144017C012F0100F12D0C0F8B01012F0200F07D051
S2144017D0C0F8D41012F0400F05D0C0F8C0107047C3
S2144017E0C0F8D010F6E7C0F8C4107047C0F8B41080
S2144017F0704701647047C06C7047806C704700004B
S2144018002DE9F041044688460E4B9847054620464B
S2144018100D4B9847054013D00C4C04F1600603E08E
S214401820B4420DD010345DB120684045F8D16168AF
S2144018302942F5D0E3689847636825EA0305EFE751
S214401840BDE8F081F7174000FB174000F80B40203A
S214401850F8B5184C2668062E2AD84FF0000C644679
S214401860154F04E00134E4B2A446A64209D3A64686
S21440187025017D598D42F5D107EB04156D689542DB
S214401880F0D10D4D4FEA0E1E05EB0E0445F80E1036
S2144018906260A3600699E1600136664505D0114650
S2144018A01A46064B98470020F8BD02490E60F6E7F8
S2144018B00120F8BD680C4020F80B4020C1174000BE
S2144018C008B50A210148024B984708BD000E0E4055
S2144018D00118400008B50B210148024B984708BD47
S2144018E000100E400118400008B50C210148024B7C
S2144018F0984708BD00120E400118400008B5102158
S2144019000148024B984708BD00140E40011840009D
S21440191008B511210148024B984708BD00160E40F5
S21440192001184000032811D0042812D002280CBF0A
S2144019304FF480710021084A136B23F440730B4325
S2144019401363936E13F0080FFBD070474FF440714B
S214401950F1E74FF40071EEE700060E40174A136BAE
S21440196023F0700318431063936E13F0080F0AD1E8
S2144019704FF4805311498A6E12F0080F03D1013B91
S214401980F9D1012070470D4A136B23F0030343F04F
S21440199002031363936E13F0080F0AD14FF480537B
S2144019A006498A6E12F0080F05D1013BF9D1012095
S2144019B07047002070470020704700BF00060E406A
S2144019C0A0B90E48036A090289B20D4A1A400D4B67
S2144019D01343194301620246936E13F0010FFBD086
S2144019E0064A116A084B0B431362704703490B6A59
S2144019F0064A1A40064B13430B62704700060E40D9
S214401A00FCFFC8FF0100370000003701FCFFC8FE9E
S214401A1002003701024B986E00F48030704700BFDA
S214401A2000060E404FF00052014B9A62704700BFCE
S214401A3000060E40024B986E00F00200704700BF52
S214401A4000060E403F281ED81F280CD8114B9A6916
S214401A5001238340934318D0012303FA00F00D4B33
S214401A6018610020704720380A4BD3F8082101231C
S214401A70834093430BD0012303FA00F0054BC3F891
S214401A80000100207047012070470020704700206A
S214401A90704700BF00060E40436913F0020F02D0A5
S214401AA0C1610020704701207047436913F0010F61
S214401AB003D083690B70002070470120704710B434
S214401AC00B01934214D9C9004B0803EBC202B2FB88
S214401AD0F1F2D3085C1E4FF6FE718C4201D901200C
S214401AE017E0416841F4002141600CE0012010E01D
S214401AF0590801EBC202B2FBF3F2D3085C1E4FF664
S214401B00FE718C42F2D8120402F4E0221A430262BA
S214401B1000205DF8044B7047084BC0F8E4300023C3
S214401B2043604362836288230360242303604FF448
S214401B30807303604FF400230360704700415355A1
S214401B4070B505460C4616460F4B984700220F4B7D
S214401B501A60A4B13246216828460D4B9847024683
S214401B6078B96368A1680B4321690B43E1680B436E
S214401B7006490B6069680B436B60104670BD0122D6
S214401B80FBE70122F9E700BF191B40006C0C402020
S214401B90BF1A40004023036070471023036070471D
S214401BA0436913F0020F04D0C1F30801C16100205D
S214401BB0704701207047436913F0010F05D08369D1
S214401BC0C3F308030B600020704701207047FEE710
S214401BD000B583B0254B264A9A4210D0254B234A5F
S214401BE09A420CD2013B9B1A23F00303043313445E
S214401BF01F4951F8040B42F8040B9A42F9D11E4B88
S214401C001E4A9A420AD2013B9B1A23F0030304332E
S214401C101344002142F8041B9342FBD1184A194B47
S214401C2023F07F039360EFF31083B3FA83F35B09EB
S214401C30019372B6BFF35F8F0022134B1A7001995F
S214401C40124A136843F470031360BFF34F8FBFF319
S214401C506F8F29B101220C4B1A70BFF35F8F62B6AB
S214401C600B4B98470B4B9847FEE700BF00004020C1
S214401C708CC74000D8094020640E4020D809402038
S214401C8000ED00E0000040001800402088ED00E035
S214401C90656D40006D4340003B4B1B6B03F00303F8
S214401CA0012B1DD083B1022B36D0374B1B6B03F074
S214401CB07003702B5FD0344B1A6B3449C2F3021258
S214401CC00B68D3400B607047314B5B6913F0800F55
S214401CD014BF4FF400424FF4FA422C4B1A60E4E72C
S214401CE0294B1B6A13F0807F03D02A4A274B1A6081
S214401CF0DBE7294A254B1A60234B1B6A03F0700327
S214401D00102B05D0202BD0D1224A204B1A60CCE78E
S214401D10224A1E4B1A60C8E71B4B1B6A13F0807F93
S214401D2016D01C4A194B1A60174B1B6B03F0030363
S214401D30022BBAD1144A916A926A1448C1F30A41F6
S214401D40036801FB0333D2B2B3FBF2F30360ACE7A4
S214401D50114A0E4B1A600C4B1B6A03F07003102B93
S214401D6005D0202BE0D10B4A084B1A60DCE70B4A23
S214401D70064B1A60D8E7054A13680949A1FB0313C6
S214401D805B081360704700BF00060E401C004020F2
S214401D9010180E40001BB70000093D0000127A00E4
S214401DA0ABAAAAAA164B984213D9164B984215D9F5
S214401DB0154B984216D9154B984217D9144B984252
S214401DC018D9144B984294BF134A144A144B1A60BD
S214401DD070474FF08062124B1A607047114A104BA2
S214401DE01A607047104A0E4B1A6070470F4A0C4BE9
S214401DF01A6070474FF00422094B1A60704700BFC4
S214401E00BFF35E017FE7BD023FDB1C04FFCE7B05D0
S214401E10BFC2DA067FB63908000500040006000493
S214401E20000C0E4000010004000200040003000401
S214401E300A4B1B6853B1094B1B681A180849914254
S214401E4008DB1046054A106018467047054A034BA3
S214401E501A60F0E74FF0FF30704700BF700C40202C
S214401E60FCFF4520683040204FF0FF3070474FF46D
S214401E7000534B6000207047012070470020704799
S214401E8000F1080343604FF0FF328260C360036195
S214401E9000230360704700230361704743684B602C
S214401EA09A688A609A68516099600861036801334D
S214401EB00360704730B40D68B5F1FF3F02D000F1C3
S214401EC0080202E0026904E01A4653681C68A5420C
S214401ED0FAD253684B6099608A6051600861036823
S214401EE00133036030BC7047036942688168916083
S214401EF08268416851605A68904205D0002202616B
S214401F00186801381860704782685A60F6E7000023
S214401F100D4B1B68B3F1FF3F0AD04FF0800372B6FB
S214401F2083F31188BFF36F8FBFF34F8F62B6FEE720
S214401F304FF0800372B683F31188BFF36F8FBFF301
S214401F404F8F62B6FEE700BF20004020064800687C
S214401F50006880F3088862B661B6BFF34F8FBFF360
S214401F606F8F00DF00BF000008ED00E0DFF80C00D8
S214401F70016841F4700101607047000088ED00E0A0
S214401F804FF0807340F8043C40F8081C054B40F87E
S214401F900C3C40F8202C6FF0020340F8243C4438B8
S214401FA0704700BF111F4000064B19680868B0E82C
S214401FB0F04F80F30988BFF36F8F4FF0000080F337
S214401FC0118870477C0C4020704700BF4FF080035C
S214401FD072B683F31188BFF36F8FBFF34F8F62B62D
S214401FE00B4A136801331360012B0FD1094B1B6852
S214401FF013F0FF0F0AD04FF0800372B683F31188B8
S214402000BFF36F8FBFF34F8F62B6FEE7704700BFD8
S2144020102000402004ED00E00A4B1B6853B94FF007
S214402020800372B683F31188BFF36F8FBFF34F8F71
S21440203062B6FEE7013B034A13600BB983F311888F
S214402040704700BF20004020EFF30980BFF36F8F3A
S214402050154B1A681EF0100F08BF20ED108A20E9B5
S214402060F04F10604DF8043D4FF0800072B680F39C
S2144020701188BFF34F8FBFF36F8F62B601F090F8B1
S2144020804FF0000080F3118808BC19680868B0E873
S214402090F04F1EF0100F08BFB0EC108A80F309888E
S2144020A0BFF36F8F704700BF7C0C4020704700BF67
S2144020B008B5EFF311834FF0800272B682F31188B1
S2144020C0BFF36F8FBFF34F8F62B6054B984718B17B
S2144020D04FF08052034B1A60002383F3118808BDEB
S2144020E00D2E400004ED00E0034A044B1A60072220
S2144020F0043B1A60704700BFBF27090014E000E0A9
S21440210000B583B0254B1A78D2B20192FF221A70DE
S2144021101B78DBB28DF803309DF8033003F0800364
S2144021201F4A137007221F4B1A609DF8033013F0A6
S214402130800F10D0062200E00A469DF803305B0070
S214402140DBB28DF803309DF80330511E13F0800F3C
S214402150F2D1144B1A60134A13681B0203F4E0636F
S2144021601360019BDBB20D4A13700F4B1A6842F4A2
S21440217060021A601A6842F060421A600B4B984739
S21440218000220B4B1A600B4B98470B4A136843F0E0
S21440219040431360094B9847094B984700E400E0DA
S2144021A0740C4020780C402020ED00E0E9204000F0
S2144021B0200040206D1F400034EF00E04D1F4000DF
S2144021C0111F4000EFF305830F2B11D9124A9B5C79
S2144021D0DBB2124A12789A420AD94FF0800372B69E
S2144021E083F31188BFF36F8FBFF34F8F62B6FEE75E
S2144021F00B4B1B6803F4E0630A4A126893420AD901
S2144022004FF0800372B683F31188BFF36F8FBFF32E
S2144022104F8F62B6FEE77047F0E300E0740C402054
S2144022200CED00E0780C402010B50446064B98476D
S2144022302046064B98470446054B98470CB1204627
S21440224010BD044B9847FAE7F12D4000B56D4000AD
S214402250592F4000BB3D400048B110B50446044BE2
S21440226098472046034B9847034B984710BD704706
S214402270F12D4000C56D4000592F400038B504464A
S2144022801546026C5AB90368002B2ED140681B4B8A
S214402290984700236360A36B0133A36338BD6DB9D1
S2144022A08068174B9847A368226C1344A360626803
S2144022B093421CD32368A3600020ECE7C068104B11
S2144022C09847236C5B42E2681A44E26021688A427F
S2144022D002D262681344E360022D0AD1A36B53B165
S2144022E0A36B013BA3630020D5E70020D3E7002083
S2144022F0D1E70020CFE70020CDE700BFA135400062
S2144023003573400030B583B00190446D74B1A26B14
S214402310E36B9A4215D34FF0800372B683F311886D
S214402320BFF36F8FBFF34F8F62B6FEE74FF0800369
S21440233072B683F31188BFF36F8FBFF34F8F62B6C9
S214402340FEE7A26B934203D80025284603B030BD73
S2144023500A4601A920460B4B98470546A36CB3F1A5
S214402360FF3F0AD1636A002BEFD004F12400064BEE
S2144023709847002818BF0125E7E7A36C0133A364FC
S214402380E3E700BF7D22400075334000026C72B127
S21440239010B50346C4681444C4604068844201D300
S2144023A01868D8600846D968014B984710BD7047F2
S2144023B035734000F8B50446224B9847A36C002B73
S2144023C01BDD214D214F224E0BE0636AABB104F179
S2144023D02400B04778B9A36C013BA364A36C002BE0
S2144023E00BDD636D002BF0D000212046A847012866
S2144023F0F1D1B847EFE7B847EDE74FF0FF33A364B6
S214402400144B98470F4B9847636C002B14DD236999
S21440241093B104F110060E4D0C4F07E0636C013B80
S2144024206364636C002B07DD23692BB13046A847F5
S2144024300028F3D0B847F1E74FF0FF336364054B0D
S2144024409847F8BDCD1F400005234000D1344000DA
S214402450753340001920400038B508B304460D4691
S2144024601D4B98472268216CE36B03FB01F3D018A1
S21440247060600020A063A2605B1A1344E3604FF0E4
S214402480FF336364A364FDB923692BB104F11000E4
S214402490124B984701280ED0114B9847012038BD63
S2144024A04FF0800372B683F31188BFF36F8FBFF38C
S2144024B04F8F62B6FEE74FF080520A4B1A60BFF36A
S2144024C04F8FBFF36F8FE7E704F11000064DA84724
S2144024D004F12400A847DFE7CD1F400075334000D5
S2144024E01920400004ED00E0811E4000F8B550B9C8
S2144024F04FF0800372B683F31188BFF36F8FBFF33C
S2144025004F8F62B6FEE7064617460D4689B101FB79
S21440251000F05930124B98470446E8B94FF0800314
S21440252072B683F31188BFF36F8FBFF34F8F62B6D7
S214402530FEE758200A4B984704460028EED0206015
S214402540E663256401212046064B984784F8507080
S214402550002363652046F8BD00F158030360EFE7AB
S21440256029224000592440002DE9F04F85B00192C1
S214402570B8B1044601B3022B2CD01D468846664BA4
S2144025809847002834D1019B002B38D04FF0800369
S21440259072B683F31188BFF36F8FBFF34F8F62B667
S2144025A0FEE74FF0800372B683F31188BFF36F8F58
S2144025B0BFF34F8F62B6FEE7026C002ADBD04FF0C7
S2144025C0800372B683F31188BFF36F8FBFF34F8FCC
S2144025D062B6FEE7E26B012ACFD04FF0800372B6B8
S2144025E083F31188BFF36F8FBFF34F8F62B6FEE75A
S2144025F000274A4EDFF850A1DFF82C9142E0002732
S214402600F7E72A4641462046454B9847636D9BB1BF
S21440261029462046434B9847012807D14FF0805221
S214402620414B1A60BFF34F8FBFF36F8F3F4B9847B6
S214402630012005B0BDE8F08F636A73B104F1240051
S2144026403B4B98470128F1D14FF08052364B1A60E9
S214402650BFF34F8FBFF36F8FE8E70028E6D04FF009
S2144026608052314B1A60BFF34F8FBFF36F8FDDE759
S2144026702E4B98470020DCE720462E4B98472E4BA3
S21440268098470127B047A26BE36B9A42B9D3022D15
S214402690B7D0019B002BEBD00FB902A8D047234BF5
S2144026A09847264B9847B047636CB3F1FF3F01D13C
S2144026B000236364A36CB3F1FF3F01D10023A364FE
S2144026C01A4B984701A902A81D4B9847E0B9B04756
S2144026D0D4F838B0E76B154B9847BB45CCD1019939
S2144026E004F11000174B98472046124B9847124B60
S2144026F098470028C5D14FF08053C9F80030BFF343
S2144027004F8FBFF36F8FBCE720460A4B98470A4B64
S214402710984700208DE700BFDD344000CD1F4000C5
S2144027207D2240000523400004ED00E019204000D3
S21440273075334000B5234000592F4000F12D40002E
S2144027403D344000713240000D344000002836D001
S2144027502DE9F041044600293CD0022B48D01E46C5
S21440276015468846354B9847EFF311874FF0800360
S21440277072B683F31188BFF36F8FBFF34F8F62B685
S214402780A26BE36B9A4201D3022E4FD132464146AA
S21440279020462B4B9847A36CB3F1FF3F41D1636D66
S2144027A0002B33D031462046264B9847002D3FD04D
S2144027B001283DD1286087F31188BDE8F0814FF0AD
S2144027C0800372B683F31188BFF36F8FBFF34F8FCA
S2144027D062B6FEE7006C0028BFD04FF0800372B6AA
S2144027E083F31188BFF36F8FBFF34F8F62B6FEE758
S2144027F0E06B0128B3D04FF0800372B683F31188A4
S214402800BFF36F8FBFF34F8F62B6FEE7636A8BB13D
S21440281004F124000C4B984775B168B1012028603C
S214402820C9E7A36C0133A3640120C4E70020C2E7D4
S2144028300120C0E70120BEE70120BCE7C5214000DB
S2144028407D22400005234000753340002DE9F047C7
S21440285084B0019298B10446E1B198460F46614B68
S214402860984728BB019B53B34FF0800372B683F35F
S2144028701188BFF36F8FBFF34F8F62B6FEE74FF0FE
S214402880800372B683F31188BFF36F8FBFF34F8F09
S21440289062B6FEE7026C002ADFD04FF0800372B6C5
S2144028A083F31188BFF36F8FBFF34F8F62B6FEE797
S2144028B000264D4DDFF860A1DFF83C914BE0002646
S2144028C0F7E7E56839462046484B9847B8F1000F89
S2144028D01DD1A36B013BA363236813B9444B9847B0
S2144028E0606023696BB104F11000424B98470128A1
S2144028F007D14FF08052404B1A60BFF34F8FBFF363
S2144029006F8F3E4B9847012004B0BDE8F087E560E6
S214402910636A002BF5D004F12400364B9847002814
S214402920EFD04FF08052344B1A60BFF34F8FBFF357
S2144029306F8FE6E7314B98470020E5E7A847606889
S2144029402F4B98472D4B984730E020462D4B9847C5
S2144029502D4B98470126A847A36B002BB1D1019B6E
S214402960002BE7D00EB902A8D047244B9847274BF8
S2144029709847A847636CB3F1FF3F01D100236364D7
S214402980A36CB3F1FF3F01D10023A3641B4B9847D0
S21440299001A902A81E4B9847E8B9A847A66B174B53
S2144029A09847002ED1D12368002BC7D0019904F157
S2144029B02400184B98472046124B9847124B98478E
S2144029C00028C7D14FF08053C9F80030BFF34F8F6F
S2144029D0BFF36F8FBEE720460A4B98470A4B98478F
S2144029E0002091E7DD344000CD1F40008D2340009D
S2144029F05D3640007533400004ED00E0192040008D
S214402A00FD344000B5234000592F4000F12D4000D2
S214402A103D344000713240000D34400010B40B4B42
S214402A201B6853B10123094C54F8332032B10133AB
S214402A30082BF9D15DF8044B70470023034A42F84F
S214402A40331002EBC3035860F4E700BFF40D402098
S214402A5070B504460D4616460F4B9847636CB3F167
S214402A60FF3F0BD0A36CB3F1FF3F0AD00B4B984708
S214402A70A36B4BB120460A4B984770BD0023636456
S214402A80F0E70023A364F1E73246294604F1240028
S214402A90044B9847EEE700BFCD1F4000192040008A
S214402AA0B5234000F5324000084B1B681B683BB11D
S214402AB0064B1B68DB68DB685A68054B1A60704734
S214402AC04FF0FF32024B1A60704700BF800C402028
S214402AD02C0D402010B50F4B1B6858600E4B1B68E2
S214402AE098420ED304460D4B18680A4B19680431B9
S214402AF00B4B98470B4B1B689C4201D2094B1C6002
S214402B0010BD094B1868034B19680431044B9847AD
S214402B1010BD00BF7C0C4020740D4020800C40202F
S214402B20B51E40002C0D4020840C40202DE9F04F6F
S214402B3083B00C9DDDF834A00E9E60B1042D15D9EF
S214402B404FF0800372B683F31188BFF36F8FBFF3E5
S214402B504F8F62B6FEE74FF0800372B683F311885C
S214402B60BFF36F8FBFF34F8F62B6FEE70190984674
S214402B7091460F4636B99000624B98470646002865
S214402B8000F09E8058205F4B98470446002800F08F
S214402B90948006634FEA8902A52130465A4B9847EF
S214402BA06FF040464E44236B03EB860323F0070644
S214402BB03B7884F834303B78002B40F08480002704
S214402BC084F83D70E562A564E76404F1040948466C
S214402BD0DFF884B1D84704F11800D8472461C5F11E
S214402BE00503A3616462276584F8547042460199E0
S214402BF03046464B98472060BAF1000F01D0CAF8DD
S214402C000040434B9847434A136801331360424B96
S214402C101B68002B66D1404B1C601368012B21D1EA
S214402C203E4F38463E4EB04707F11400B04707F1D6
S214402C302800B04707F13C00B04707F15000B047C6
S214402C40DFF818814046B047364F3846B0473648DA
S214402C50B0473648B0473648B047364BC3F8008092
S214402C60354B1F60354A1368013313602364E06AAE
S214402C70334A1168012383400B43136000EB800006
S214402C804946264B03EB80002E4B98472E4B9847E1
S214402C902E4B1B68002B31D01F4B1B68DB6A9D42B6
S214402CA02ED94FF080522A4B1A60BFF34F8FBFF396
S214402CB06F8F012003B0BDE8F08F3046254B984714
S214402CC04FF0FF30F6E73B4604F1340209375978B7
S214402CD002F8011F13F8011F00293FF470AFBB42F2
S214402CE0F5D16CE7194B1B68002BBBD10A4B1B6810
S214402CF0DB6A9D42B6D3084B1C60B3E70120D9E798
S214402D000120D7E72922400069744000811F400017
S214402D10CD1F4000EC0C40207C0C4020880C40200E
S214402D20811E4000180D4020340D4020600D40208C
S214402D304C0D4020800C4020840C4020F80C402055
S214402D40000D40209D1E400019204000480D4020A8
S214402D5004ED00E059224000971E4000040D40203C
S214402D6010B584B0002303930293019300934FF46D
S214402D70006217491748184CA04701280BD020BBC3
S214402D804FF0800372B683F31188BFF36F8FBFF3A3
S214402D904F8F62B6FEE7114B98470128EFD14FF0B0
S214402DA0800372B683F31188BFF36F8FBFF34F8FE4
S214402DB062B64FF0FF320A4B1A600122094B1A6086
S214402DC00022094B1A60094B984704B010BD00BF5B
S214402DD054BF4000093140002D2B40004937400089
S214402DE02C0D4020480D4020740D4020012140000D
S214402DF0024A136801331360704700BFF40C40204A
S214402E00014B1868704700BF740D40202DE9F0470D
S214402E10424B1B68002B78D1414B1A6801321A602E
S214402E201E68D6B93F4B1B681B6853B14FF08003F2
S214402E3072B683F31188BFF36F8FBFF34F8F62B6BE
S214402E40FEE7384A1168384B186810601960374AF0
S214402E50136801331360364B9847364B1B689E42C7
S214402E6018D20024344B1B68DB6A03EB8303334AD7
S214402E7052F82330022B28BF0124314B1B680BB974
S214402E80304B9847304B1B68002B0CBF2046012028
S214402E90BDE8F0870024DFF88C90DFF8B8802B4F31
S214402EA01FE04FF0FF32234B1A60DBE7214A1360E6
S214402EB0D8E705F11800C047E86A3A68012383401E
S214402EC013433B6000EB800051461C4B03EB8000F5
S214402ED01F4B9847184B1B68EA6ADB6A9A4228BF22
S214402EE00124D9F800301B68002BDAD0D9F800301E
S214402EF0DB68DD686B689E42D8D305F1040A50460D
S214402F00C047AB6A002BD4D1D6E70D4A13680133CD
S214402F1013600C4B98470024B4E700BFF40C4020E5
S214402F20740D4020800C4020840C4020300D402002
S214402F30A92A40002C0D40207C0C4020880C4020C4
S214402F40F00C4020B93D4000780D4020000D402058
S214402F509D1E4000E91E40002DE9F843384B1B6893
S214402F6053B94FF0800372B683F31188BFF36F8F67
S214402F70BFF34F8F62B6FEE7324B9847304B1A6826
S214402F80013A1A601B68002B55D12F4B1B68002B4B
S214402F9032D100242D4B98472046BDE8F883FB6885
S214402FA0DC6804F11800B04704F104084046B04716
S214402FB0E06A2A680123834013432B6000EB8000BD
S214402FC0414609EB8000224B9847224B1B68E26A39
S214402FD0DB6A9A420CD23B68002BE0D11E4B1B6842
S214402FE0DBB11D4B1B68C3B11C4E1D4D1A4C0EE089
S214402FF001221B4B1A60EEE71A4F1B4E1B4DDFF8A3
S2144030007490E8E72368013B236023682BB1B04700
S2144030100028F7D001232B60F4E7114B1B68012BE7
S2144030200BD14FF08052124B1A60BFF34F8FBFF355
S2144030306F8F0124AEE70024ACE70024AAE700BF68
S214403040F40C4020CD1F4000EC0C402019204000DE
S2144030509D1E40007C0C4020F00C40200D2E400071
S214403060780D4020340D4020E91E4000000D4020E1
S21440307004ED00E0880C402010B5002829D0044616
S214403080184B1B6853B14FF0800372B683F3118818
S214403090BFF36F8FBFF34F8F62B6FEE7124B984772
S2144030A0124B1B681C44124B18680430114B98474F
S2144030B048B90F4B1A6810490B68D06A0122824003
S2144030C023EA02030B6020460C4B98470C4B98476C
S2144030D038B94FF080520B4B1A60BFF34F8FBFF397
S2144030E06F8F10BDF40C4020F12D4000740D402031
S2144030F07C0C4020E91E4000000D4020D52A4000B0
S214403100592F400004ED00E080B5DFF88880194E66
S214403110DFF884902AE0184B1B68012B1ED82B68DA
S214403120002BF8D0C0473468B847002CF7D0134B74
S2144031309847F368DC68201D114B9847114A13687E
S214403140013B13602B68013B2B600F4B9847206B6D
S214403150DFF848A0D0472046D047E0E74FF08053FE
S214403160C9F80030BFF34F8FBFF36F8F074D084F3E
S214403170D5E700BF600D4020880C4020CD1F4000A2
S214403180E91E4000EC0C402019204000FC0C40207A
S214403190592F4000F12D400004ED00E05922400038
S2144031A02D4B1B68002B2CD110B500222B4B1A60E0
S2144031B02B4B1B681B6B1A68B2F1A53F03D15A68AC
S2144031C0B2F1A53F21D0264B186819683431254BFB
S2144031D09847254B1B68B3FA83F3DBB2C3F11F0352
S2144031E003EB8301214A52F82120BAB94FF08003FD
S2144031F072B683F31188BFF36F8FBFF34F8F62B6FB
S214403200FEE70122154B1A6070479A68B2F1A53F57
S214403210D9D1DB68B3F1A53FD5D1DAE7134A990097
S214403220C81802EB8000446864684460194402464B
S2144032300832944209D003EB83030C4A02EB830323
S2144032405B68DA68064B1A6010BD6068074A02EB96
S21440325081025060EFE700BFF40C4020780D40201C
S2144032607C0C4020A13D4000000D4020880C4020B2
S21440327038B5E0B10C46174D29681831164B9847BB
S21440328028680430154B984740B92A6814490B689B
S214403290D06A0122824023EA02030B60B4F1FF3F6A
S2144032A010D0104B186820440F4B984738BD4FF04D
S2144032B0800372B683F31188BFF36F8FBFF34F8FCF
S2144032C062B6FEE7034B196804310848084B984736
S2144032D038BD00BF7C0C4020B51E4000E91E4000B3
S2144032E0000D4020740D4020D52A40004C0D402053
S2144032F09D1E4000E8B170B515460C46164E316826
S2144033001831164B984730680430154B984740B9EB
S214403310326814490B68D06A0122824023EA0203CD
S2144033200B60012D10D0104B186820440F4B984767
S21440333070BD4FF0800372B683F31188BFF36F8F72
S214403340BFF34F8F62B6FEE7034B19680431084857
S214403350024B984770BD00BF7C0C40209D1E40002D
S214403360E91E4000000D4020740D4020D52A400044
S2144033704C0D402038B5C368DC6824B304F118050A
S21440338028461A4B98471A4B1B683BBB251D2846B8
S214403390164B9847E06A174A1168012383400B434F
S2144033A0136000EB80002946134B03EB8000134B61
S2144033B09847134B1B68E26ADB6A9A4213D901208E
S2144033C0104B186038BD4FF0800372B683F31188F7
S2144033D0BFF36F8FBFF34F8F62B6FEE729460A48AA
S2144033E0064B9847E5E7002038BD00BFE91E400081
S2144033F0F40C4020000D4020880C40209D1E4000CC
S2144034007C0C4020780D4020340D402030B1094AD5
S21440341012680260084A1268426070474FF08003A4
S21440342072B683F31188BFF36F8FBFF34F8F62B6C8
S214403430FEE700BF300D4020740D402038B5C0B1C7
S214403440044609B30D461D4B98471D4B1A682B681A
S214403450B3F1FF3F2ED01B4909682068884202D04E
S21440346061688A4228D26168501A834217D801247C
S2144034701CE04FF0800372B683F31188BFF36F8F62
S214403480BFF34F8F62B6FEE74FF0800372B683F30A
S2144034901188BFF36F8FBFF34F8F62B6FEE79B1A5C
S2144034A00B442B602046084B98470024074B984710
S2144034B0204638BD0024F9E70124F7E7CD1F400039
S2144034C0740D4020300D40200D344000192040003F
S2144034D00122014B1A607047780D4020054B1B684F
S2144034E033B1054B1B68002B0CBF022000207047F1
S2144034F001207047480D4020F40C4020002844D05E
S21440350038B50446C26A21490968C96A8A4214D253
S2144035108169002905DB1D490968C96AC1F10501B1
S214403520816102EB82021A4901EB82026169914293
S21440353004D0164A1268D26AE26238BD251D284673
S214403540144B984770B9E36A03EB8301104A52F86C
S21440355021203AB910480268012101FA03F322EA11
S21440356003030360094B1B68D86AE0620A4A116885
S214403570012383400B43136000EB80002946044B35
S21440358003EB8000054B984738BD70477C0C4020C5
S214403590880C4020E91E4000000D40209D1E400043
S2144035A000284DD038B50446274A126890420AD0C3
S2144035B04FF0800372B683F31188BFF36F8FBFF36B
S2144035C04F8F62B6FEE7C26C52B94FF0800372B6B8
S2144035D083F31188BFF36F8FBFF34F8F62B6FEE75A
S2144035E0013AC264C06AA16C88422BD052BB251DEA
S2144035F02846164B984768B9E16A01EB8102144B9E
S21440360053F8223033B91348036801228A4023EA2C
S21440361002030360A06CE062C0F10503A3610D4A9B
S2144036201168012404FA00F30B43136000EB80009A
S2144036302946074B03EB8000074B9847204638BD8A
S21440364000207047002038BD7C0C4020E91E40001A
S214403650880C4020000D40209D1E4000054B1B68F6
S21440366023B1044B1A68D36C0133D364014B1868FA
S214403670704700BF7C0C402008B541600061914215
S2144036800CD8D21A83699A4201D3012008BD011D85
S214403690094B1868094B9847002008BD9A4203D248
S2144036A0994201D3012008BD011D054B1868034B04
S2144036B09847002008BD00BF800D4020B51E400042
S2144036C07C0D402070B5154B9847154B1B6813B1C1
S2144036D0144B984770BD144D2846144EB047144CB2
S2144036E02046B047134B1D60134B1C600022102130
S2144036F00520124B98470A4B186018B11049114BD9
S2144037009847E5E74FF0800372B683F31188BFF31E
S2144037106F8FBFF34F8F62B6FEE700BFCD1F4000EE
S214403720B00D402019204000840D4020811E4000EE
S214403730980D40207C0D4020800D4020ED24400018
S2144037405CBF40001D2A400010B584B00F4B984720
S2144037500F4B1B6873B1002303930293019304221B
S21440376000924FF480520B490B480C4CA04708B1CE
S21440377004B010BD4FF0800372B683F31188BFF3D8
S2144037806F8FBFF34F8F62B6FEE700BFC53640006F
S214403790B00D402064BF4000C93840002D2B40008B
S2144037A0D8B130B585B015460446154A106820B3E2
S2144037B01A46009101950294052919DC114B984749
S2144037C002284FF000030CBF089A1A4669460C4878
S2144037D000680D4CA04705B030BD4FF0800372B670
S2144037E083F31188BFF36F8FBFF34F8F62B6FEE748
S2144037F000236946054CA047EDE70020EBE700BFF5
S214403800B00D4020DD344000692540004D27400083
S2144038102DE9F04782B08046244B98470746244B14
S2144038201B6898421BD30023C8F80030204B1F600B
S214403830384602B0BDE8F087002100910B4652465C
S21440384020461C4CA04760B94FF0800372B683F305
S2144038501188BFF36F8FBFF34F8F62B6FEE7164DEA
S214403860164E2B681A68C2B1DB68D3F800A0DC6835
S21440387004F104094846B047636A20469847E3691E
S214403880012BEED1A36953449A45D5D26360246197
S214403890494628680A4B9847E3E70A4A10680649AB
S2144038A0086013600123C8F80030BFE7012E4000CF
S2144038B0AC0D4020A13740007C0D4020E91E400062
S2144038C0B51E4000800D40202DE9F04788B0754E6B
S2144038D0754FDFF8FC91DFF8FC8133681A68002AE0
S2144038E000F0CE80DB681C68B84704A86F4B98474A
S2144038F00546049B002B44D1A04212D20022611BF5
S2144039006B4B18686B4B98476B4B984700283AD1DF
S2144039104FF08053C9F80030BFF34F8FBFF36F8F1F
S21440392031E0654B98473368DB68D3F80CA00AF162
S2144039300400C047DAF81C30012B04D0DAF82430F3
S214403940504698471FE0DAF8181023462A46214486
S21440395050465A4DA8470128F0D1002100910B4609
S21440396022465046564CA0470028E7D14FF08003E9
S21440397072B683F31188BFF36F8FBFF34F8F62B673
S214403980FEE74D4B98474A4D4E4C06E00799069841
S214403990059B9847049B002B09DA00231A4604A986
S2144039A02868A047002898D0049B002BEEDBDDF863
S2144039B018A0DAF8143013B10AF10400C04703A87F
S2144039C03A4B9847049B092BE7D801A252F823F0BC
S2144039D0F9394000F9394000F93940009B39400038
S2144039E04D3A4000793A4000F9394000F9394000F4
S2144039F09B3940004D3A4000059CDAF818102346A3
S214403A000246214450462D4CA0470128BCD1DAF846
S214403A10243050469847DAF81C30012BB4D1DAF8F7
S214403A201820002100910B46059802445046244C2D
S214403A30A0470028A8D14FF0800372B683F31188C0
S214403A40BFF36F8FBFF34F8F62B6FEE70599CAF894
S214403A50181031B10346024601445046174CA04761
S214403A6092E74FF0800372B683F31188BFF36F8FEF
S214403A70BFF34F8F62B6FEE75046134B984783E737
S214403A80B84704A8094B98470546049B002B7FF48B
S214403A9078AF0E4B1B681A68B2FA82F252090024BD
S214403AA02DE700BF7C0D4020F12D4000113840002E
S214403AB0B00D4020512A4000592F40007936400032
S214403AC0A13740004D28400059224000800D40203C
S214403AD004ED00E0E91E40007047000080B582B06B
S214403AE0224D234E234F0AE001213046224B984771
S214403AF00A20224B984701213046214B9847214CBB
S214403B000023322201A92868A0470028F8D0019B4C
S214403B10002BE9D0012B0DD0022B19D001213046C5
S214403B20174CA0474FF080413846A047042116481E
S214403B30A047E4E74FF0804138460F4B98470A20AD
S214403B400E4B98474FF0804138460D4B9847D6E786
S214403B500D4C04212046084B98470A20074B9847AF
S214403B6004212046064B9847C9E700BF380E402040
S214403B70000E0E4000120E403B16400079304000CA
S214403B80371640004D28400000100E402DE9F04703
S214403B90DFF85090104FDFF85080002423464FF453
S214403BA07A722146D9F80000B8470028F6D00A2491
S214403BB04FF48076DFF834A031464046D047642044
S214403BC0064DA84731464046054B98476420A847CF
S214403BD0013CF1D1E1E700BF4D284000793040007C
S214403BE037164000340E402000120E403B16400070
S214403BF0F0B583B005460C46002301932A4B984205
S214403C0013D02A4B984218D0294B98421DD0294BA6
S214403C109D4222D0284B9D4227D0284B9D422ED0F5
S214403C20274B9D4235D003B0F0BD1F46254E21465A
S214403C303846B0470028FAD1E9E71F46214E2146CC
S214403C403846B0470028FAD1E4E71F461D4E2146C5
S214403C503846B0470028FAD1DFE71F46194E2146BE
S214403C603846B0470028FAD1DAE71E46164D01A975
S214403C703046A8470028FAD1019B2370D3E71E465A
S214403C80114D01A93046A8470028FAD1019B237060
S214403C90C9E71E460C4D01A93046A8470028FAD170
S214403CA0019B2370BFE700BF00080E40000A0E408D
S214403CB0001A0E40001C0E400040024000800240A9
S214403CC000C00240AB1A4000B71B400070B50C461F
S214403CD02A4B984213D02A4B984219D0294B9842E7
S214403CE01FD0294B984225D0284B98422BD0284BA2
S214403CF0984231D0274B984237D0002070BD1E46A0
S214403D00254D21463046A8470028FAD1012070BDEF
S214403D101E46214D21463046A8470028FAD10120AC
S214403D2070BD1E461C4D21463046A8470028FAD195
S214403D30012070BD1E46184D21463046A847002833
S214403D40FAD1012070BD1E46144D21463046A84784
S214403D500028FAD1012070BD1E46104D214630463F
S214403D60A8470028FAD1012070BD1E460B4D2146BB
S214403D703046A8470028FAD1012070BD00080E4002
S214403D80000A0E40001A0E40001C0E400040024042
S214403D900080024000C00240991A4000A11B40002B
S214403DA008B50A4601460248024B9847FEE700BF60
S214403DB0BCC040001D75400070474FF0800372B68F
S214403DC083F31188BFF36F8FBFF34F8F62B6FEE762
S214403DD000B587B08DF814008DF8041001210291CB
S214403DE00392049301A90348034B984740B207B097
S214403DF05DF804FB00000640510D400000B587B05A
S214403E008DF814008DF8041001210291039204935A
S214403E1001A90348034B984740B207B05DF804FB3E
S214403E2000000640A50C40002DE9F04F2DED0C8B10
S214403E30B9B02920454EB047454B0F9349F640430D
S214403E4010930FA94348444B98471020B047434D22
S214403E504FF080524FF0C0512846414CA0474FF09B
S214403E6000624FF0C0512846A0471020B0474FF0A0
S214403E7080524FF0C0512846A0474FF000624FF0A6
S214403E80C0512846A04701232EAA75216820354CEC
S214403E90A047002835D03448344B98479DF8B83072
S214403EA0682B0CBF32483348304B9847012338AA1A
S214403EB002F8343D6B2168202F4CA04740BB38AAFF
S214403EC0002302F8343D01231C2168202A4CA047D9
S214403ED010BB38AA002302F8343D01231B2168207A
S214403EE0254CA047E0B912A8244B9847244D9FED97
S214403EF025BADFED25BA4FF001094FF06808234F89
S214403F005EE09DF8B82075212148224B9847C5E7CA
S214403F102148164B9847D2E71F48144B9847D8E796
S214403F201D48124B9847DEE717EE900A1B4B984702
S214403F300AEE100A8FE0B0EE6BAA8CE000231A4619
S214403F40194617480068174CA0476DE1451A4000CF
S214403F5000A3E11100000640710C400000140E4022
S214403F603F164000FD3D400014C04000E175400053
S214403F7040C0400058C04000D13D4000B50240001F
S214403F8005484000E02E6542DB0FC9BF9160400007
S214403F902CC040001D75400074C04000654740007E
S214403FA0340E402069254000CDF8289000230BAA07
S214403FB00AA9C8480068C84CA0473220C74B984753
S214403FC0CDED0CCA8DED0DDACDED0EDA8DED0F8A06
S214403FD0CDED108ACDED119A12A934A8C04B984762
S214403FE0DDED349ADDED358A9DED368A9DED379AC6
S214403FF068EE087AB6EE00CA3CEE67CA68EEA86A73
S21440400029EEA87A69EE087A7CEE666A16EE901A71
S21440401077EE277A17EE900AA84707EE900A67EEE3
S2144040208BAA29EE887A69EE287A77EE677A77EE59
S214404030A77ABFEE007AF4EEC77AF1EE10FA7FF672
S2144040407AAFB7EE007AF4EEC77AF1EE10FAFFF6E2
S2144040506BAF9FEDA4AA2AEE0BAA69EE097A29EE69
S214404060299A28EE888A7CEE677A17EE901A79EEBF
S214404070087A17EE900AA84707EE900A27EE8B9A22
S2144040804B460DF1CF023B214046974CA0474B464E
S21440409033AA3C214046A0474B460DF1CE023D2177
S2144040A04046A0474B460DF1CB0240214046A04734
S2144040B04B460DF1CD023F214046A0474B460DF101
S2144040C0CA0240214046A0479DF8CF209DF8CC30FC
S2144040D043EA02231BB208EE103A9DF8CE209DF824
S2144040E0CB3043EA02231BB208EE903A9DF8CD202F
S2144040F09DF8CA3043EA02231EB24B460DF1C90270
S21440410043214046A0474B460DF1C6024421404657
S214404110A0474B4632AA45214046A0474B460DF1A4
S214404120C50248214046A0474B460DF1C7024721ED
S2144041304046A0474B4631AA48214046A0479DF8F6
S214404140C9E09DF8C6109DF8C8409DF8C5209DF86A
S214404150C7009DF8C430B8EEC88A9FED647A28EE52
S214404160078AF8EEE88A68EE878A07EE906AF8EEE5
S214404170E77A67EE879A41EA0E2109B207EE901A6F
S214404180F8EEE77A9FED5A7AC7EE87CA42EA0422EB
S21440419012B207EE902AF8EEE77A87EE87DA43EA1D
S2144041A000231BB207EE903AF8EEE77AC7EE87DABE
S2144041B018EE100AB847CDE9060118EE900AB8473F
S2144041C082468B4619EE900AB847CDE90801494C1D
S2144041D052465B4650465946A04782468B46DDE9E6
S2144041E0060102460B46A047434E02460B46504643
S2144041F05946B04782468B46DDE9080102460B46E3
S214404200A04702460B4650465946B0473B4B984758
S2144042103B4B98470CEE100AF6EE007AB4EEE7CA2F
S214404220F1EE10FA3FF58AAE364B03930FAB93E8A8
S21440423007008DE807000CAB0ECB12A8324CA04707
S2144042401AEE900AB84782468B461CEE100AB847CC
S214404250CDE9040119EE100AB847CDE902011AEE7D
S214404260100AB847CDE9000152465B462748284920
S2144042708847CDF82C90DFED277AB4EEE7AAF1EE2A
S21440428010FA3FF791AEDFED247AF4EEE7AAF1EEAE
S21440429010FA45D5FAEE047AB4EEE7AAF1EE10FA33
S2144042A03EDDF2EE047AB4EEE7AAF1EE10FA07D459
S2144042B0DFED1A7AF4EEE7AAF1EE10FA40DC7CE67F
S2144042C000230A930BAA0AA902480068024CA0479A
S2144042D073E600BF380E4020692540007930400024
S2144042E0E1024000DB0FC93FFD3D40000000803842
S2144042F00000034339614000D55D4000A9464000B8
S21440430099664000CDCCCC3DED0840008CC04000C6
S2144043101D75400000008C420000A0C200007042A4
S2144043205FED027AF4EEE7AAF1EE10FA7FF745AEBB
S214404330FAEE047AB4EEE7AAF1EE10FA7FF73DAE55
S214404340F2EE047AB4EEE7AAF1EE10FA7FF535AE57
S21440435002230A9300230BAA0AA902480068024CCB
S214404360A0472AE6380E40206925400080B58AB02E
S214404370634B9847634B9847634B4FF480621A6091
S214404380802783F80A730A20604EB0470C20B04757
S2144043900B20B0475E4C09234FF400624FF020518B
S2144043A020465C4DA8473C224FF4006120465A4BBD
S2144043B098474FF400612046584B9847584B009317
S2144043C050234FF400620A212046DFF8E481C047BC
S2144043D0002301224FF060512046A84700234FF0AB
S2144043E080424FF060514F48A847002304224FF0C8
S2144043F060514D48A8474D4D4D4B1D604D4A4E4B64
S2144044001A604E4A4E4B1A604FF4E1330493C02371
S21440441005934FF4006306930024079408940E20F7
S214404420B047484A04A92846474B98472846474B32
S21440443098472846464B9847464E336821469868E4
S214404440454DA847336821465868A84733682146F3
S2144044509868A847414B9847009420233A462146FF
S21440446020463F4DA8473F4B052221463E483F4DFC
S214404470A8472246042164203D4DA8473D4B18607E
S214404480032221460120A8473B4B1860002832D023
S214404490002303930293019300934FF4C06237497D
S2144044A03748384CA047012802D03748374B984702
S2144044B0002303930293019300934FF4C062344960
S2144044C03448304CA047012802D033482F4B9847F9
S2144044D0002303930293019300934FF4C0622F4945
S2144044E02F48284CA047012802D02E48274B9847F3
S2144044F02D4B9847FEE72D48244B9847C8E700BF0A
S214404500891340008514400000E100E0451A400051
S214404510000E0E40311740001D164000F3174000B5
S214404520D93A400000120E4000100E400080024073
S214404530F00D4020CD3C4000EC0D4020F13B4000CB
S214404540E80D402080D1F008411B4000951B4000FC
S2144045509B1B400028004020157640006910400014
S214404560ED0E40000C0040206CBF4000D10F4000D4
S214404570ED244000380E4020340E40209CBF4000C2
S2144045808D3B40002D2B4000A8BF4000E175400009
S214404590C4BF4000293E4000C8BF4000E4BF4000C2
S2144045A0DD3A4000F0BF4000612D400080BF400033
S2144045B05118400000B51C4A20F00043934283B097
S2144045C018DDB3F1FF4F05DB014602F0B9F803B042
S2144045D05DF804FB694600F0AFFB00F00302012AD9
S2144045E015D0022A0CD0CAB101220199009801F0D8
S2144045F0AFF9ECE7002100F061FD03B05DF804FB85
S2144046000199009800F05AFD00F10040DFE701995B
S214404610009801F09DF900F10040D8E70199009814
S21440462000F04CFDD3E700BFD80F493F00B51D4A08
S21440463020F00043934283B019DDB3F1FF4F05DB12
S214404640014602F07DF803B05DF804FB694600F0D1
S21440465073FB00F00300012818D002280ED0D0B11A
S2144046600199009800F02AFD00F10040EBE7002297
S214404670002101F06DF903B05DF804FB01220199B9
S214404680009801F065F900F10040DCE701990098D8
S21440469000F014FDD7E701220199009801F058F97F
S2144046A0D1E700BFD80F493F2DE9F04F8BB0044605
S2144046B00D4600F0A9F8294B93F900A0BAF1FF3F48
S2144046C006460F4612D022462B462046294601F083
S2144046D0CDFF834650B94FF000084FF000094246E0
S2144046E04B462046294601F099FF20B930463946C8
S2144046F00BB0BDE8F08F1A4BCDF820B00122CDE9C3
S2144047000445CDE902458DE80C00BAF1000F17D0FC
S21440471042464B464046494601F038FEBAF1020F43
S214404720CDE906010ED102F017FB21230360089B5A
S21440473073B9DDE90667304639460BB0BDE8F08F01
S214404740CDE90689684601F079F90028EFD1EAE715
S21440475002F002FB089B0360EBE700BF240040200A
S214404760D4C04000F0B5244E8BB0044600F008F9A3
S21440477096F90030013305462FD02146204602F0F8
S214404780AFFA074648BB204601F076FA4FF07E5116
S21440479002F09CFA08B3194B0897012220468DE890
S2144047A00C0001F075FC02460B461548CDE9042383
S2144047B0CDE9022301F044F996F90030022BCDE909
S2144047C006010DD0684601F039F948B1089B73B927
S2144047D0DDE9060101F060FF054628460BB0F0BD56
S2144047E002F0BAFA21230360089B002BF0D002F0B7
S2144047F0B3FA089B0360EBE724004020DCC040008F
S21440480028C0400000F006BA2DE9F8435B4F8F43BE
S21440481005460C4600F0928000290B4602466FDDA6
S2144048200F157BD0A7F2FF37C3F31303F80743F403
S21440483080135CD403EBD27100260B447F105200E9
S214404840B64616204FF400110EEB01049C424FEA88
S214404850D2754FEA420203DC1B1B04EB010E0E44EA
S214404860013805EB43034FEA5101EDD1844620243D
S2144048704FF0004109E020D003EBD275013C4FEAEF
S21440488051012B444FEA420220D0734501EB0C0500
S214404890F1DD002D05EB010C09DBF0469542A3EB5C
S2144048A00E0300D9013B521B0844C646E4E7BCF160
S2144048B0000FF2DB0EF10108F0E79542DCD8002D40
S2144048C005EB010C44DB98460023ECE7134313D179
S2144048D04008731003F17F5303F50013F20703EB10
S2144048E0075948BF40F000404946BDE8F8835B00A2
S2144048F003EBD27352009DE7411C2DD00130E7E711
S214404900064621F000473E43EFD069BB0F46D30A28
S214404910153F5205002BFAD0DE0220D4002400E0DA
S21440492004465B00DD0204F10100F9D5C0F1200128
S21440493022FA01F10B433F1B824073E702460B46C7
S21440494001F0FAFB2A46234601F044FABDE8F88314
S214404950BCF1000FAEDAB6E701362046B9E70020D4
S21440496020214FF0FF34E3E702460B4601F030FAD1
S21440497002460B4601F00AFDB7E700BF0000F07F95
S2144049802DE9F84320F00045B5F17E5F044600F07F
S214404990C68012DCB5F17C5F064616DAB5F1485F94
S2144049A080F2CB808B4901F0CDFE4FF07E5102F075
S2144049B08DF950B12046BDE8F883014601F0C0FEAF
S2144049C0014602F07BF8BDE8F883204601F054F932
S2144049D001464FF07E5001F0B3FE4FF07C5101F09F
S2144049E0B9FF7D49044601F0B5FF7C4901F0AAFEB7
S2144049F0214601F0AFFF7A4901F0A2FE214601F0C0
S214404A00A9FF784901F09EFE214601F0A3FF7649B2
S214404A1001F096FE214601F09DFF744901F092FE9A
S214404A20214601F097FF72498046204601F092FFEA
S214404A30704901F085FE214601F08CFF6E4901F079
S214404A4081FE214601F086FF6C4901F079FE214641
S214404A5001F080FF4FF07E5101F074FE8146204603
S214404A6000F0D8FA664B9D4207464946404643DC2E
S214404A7002F024F839468046384601F063FE014687
S214404A80404601F067FF27F47F6525F00F05804616
S214404A902946284601F05EFF0146204601F050FEBA
S214404AA039460446284601F04DFE0146204602F0AF
S214404AB005F8014601F046FE0146524801F040FE28
S214404AC00146404601F03CFE29460446284601F091
S214404AD039FE01464C4801F033FE0146204601F0BF
S214404AE02FFE0146484801F02BFE002E3FF763AFED
S214404AF000F10040BDE8F88301F0E0FF394601F0E0
S214404B0029FF394601F01EFE014601F01BFE3F49D3
S214404B1001F018FE01463E4801F012FEE5E73C492A
S214404B2001F018FF37490546204601F013FF0146BD
S214404B30284601F007FEBDE8F883014601F00AFF6B
S214404B402549054601F006FF244901F0FBFD2946AC
S214404B5001F000FF224901F0F3FD294601F0FAFE7C
S214404B60204901F0EFFD294601F0F4FE1E4901F010
S214404B70E7FD294601F0EEFE1C4901F0E3FD29461B
S214404B8001F0E8FE1A490646284601F0E3FE1949B8
S214404B9001F0D6FD294601F0DDFE174901F0D2FDB1
S214404BA0294601F0D7FE154901F0CAFD294601F015
S214404BB0D1FE4FF07E5101F0C5FD0146304601F072
S214404BC07DFF214601F0C6FE214601F0BBFDBDE853
S214404BD0F88300BFCAF2497108EF1138047F4F3A94
S214404BE04611243DA80A4E3E90B0A63EABAA2A3EA9
S214404BF02EC69D3D6133303F2D57014039D1194077
S214404C009999793F2EBD3BB3DB0F493F2EBD3B33D1
S214404C10DB0FC93FF8B50C4621F00041B1F1FF4F1C
S214404C20034614DC20F00046B6F1FF4F07460EDC84
S214404C30B4F17E5F3DD0A51705F0020545EAD07574
S214404C4056B9022D30D0032D30D13248F8BD194622
S214404C50204601F077FDF8BD01B3B1F1FF4F2CD0EF
S214404C60B6F1FF4F1AD0711AC9153C291ADC002C30
S214404C7039DB2146184601F021FF00F0FDFF00F029
S214404C80E5FE012D2CD0022D22D0002D2FD022491A
S214404C9001F058FD214901F053FDF8BD002F06DB19
S214404CA01F48F8BD1E48ECE71C48F8BDF8BD1D4837
S214404CB0F8BDBDE8F84000F0C9BEB6F1FF4F17D0CA
S214404CC0022DF1D0032DC0D0012D19D00020F8BD03
S214404CD0114901F037FD0146104801F031FDF8BD9D
S214404CE000F10040F8BD3C31C3DA0020C9E7F8BD0A
S214404CF0022D0CD0032D08D0012D04D00A48F8BD53
S214404D004FF00040F8BD0948F8BD0948F8BD0948CD
S214404D10F8BD00BFDB0F49C02EBDBB33DB0F49409B
S214404D20DB0FC93FDB0FC9BFDB0F493FDB0F49BF76
S214404D30E4CB16C0E4CB16402DE9F04FA84A20F04D
S214404D400044944289B06EDDA64A944206460D461B
S214404D501CDC0028A44940F3FC8001F0F1FCA34B86
S214404D6024F00F049C4206466CD0A14901F0E8FCB2
S214404D7001462860304601F0E3FC9D4901F0E0FC26
S214404D8001276860384609B0BDE8F08F994A9442DA
S214404D906ADDB4F1FF4F4EDAE715863FA4EBC75401
S214404DA0204601F0B3FF01F081FD03460146204650
S214404DB0059301F0C5FC4FF0874101F0CBFD8046DE
S214404DC001F0A4FF01F072FD0146044640460694F9
S214404DD001F0B6FC4FF0874101F0BCFD0021079082
S214404DE001F04CFF002800F0CB802046002101F067
S214404DF045FF002814BF012302237F4A0192022167
S214404E003A46009105A8294600F01CFA002E0746AF
S214404E100DDA95E80C0002F1004203F100434742E8
S214404E202A606B6003E0002208604A60002738462C
S214404E3009B0BDE8F08F014601F082FC00276860AB
S214404E402860F4E76D4901F07BFC6D49044601F0AB
S214404E5077FC01462860204601F072FC684901F064
S214404E606FFC01276860E2E700F006FF6549804670
S214404E7001F070FD4FF07C5101F064FC01F046FFFC
S214404E80074601F013FD5849834601F063FD01468D
S214404E90404601F055FC56498146584601F05AFDB9
S214404EA01F2F824621DC584A791E24F0FF0352F811
S214404EB02120934219D05146484601F041FC804695
S214404EC0C5F800804146484601F03AFC514601F09C
S214404ED037FC002E6860AADA08F1004800F100406E
S214404EE0C5F8008068607F42A1E75146484601F019
S214404EF027FCE215C0F3C753D31A082B8046DFDDE4
S214404F003E490392584601F025FD804601464846F4
S214404F1001F016FC01460446484601F011FC4146A5
S214404F2001F00EFC36498046584601F013FD4146D6
S214404F3001F006FC01468246204601F001FC039A39
S214404F40C0F3C753D21A192A80462EDC2860A146E1
S214404F50B8E701F0F7FB254B24F00F049C420646C9
S214404F6010D0234901F0EEFB01462860304601F0A0
S214404F70E7FB1F4901F0E6FB4FF0FF37686056E756
S214404F8003233AE71D4901F0DDFB1D49044601F0C5
S214404F90D9FB01462860204601F0D2FB184901F0B3
S214404FA0D1FB4FF0FF37686041E71849584601F09B
S214404FB0D1FC01468046204601F0C2FB01468146B0
S214404FC0204601F0BDFB414601F0BAFB10490446BD
S214404FD0584601F0BFFC214601F0B2FB82466AE724
S214404FE0D80F493FE3CB1640800FC93FD00FC93F8B
S214404FF043443537800F494364C140000044353749
S21440500008A3852E84F9223FE4C0400000A3852EE5
S21440501032318D2420F00042B2F1FF4FF8B50446FD
S2144050202ED262B3002803463DDBB2F5000F4FEAAE
S214405030E0502CD37F38C3F3160343F40003C20773
S21440504048BF5B00002647105B00314619244FF0EE
S21440505080728D189D4202DC5B1BA9181644013CE9
S2144050604FEA43034FEA5202F3D113B1013626F01A
S2144050700106701000F17C5000EBC750F8BDF8BD3B
S214405080014601F067FC214601F05CFBF8BD14F4D4
S214405090000201D00EE00A465B001C0202F101014C
S2144050A0F9D5801AC6E7014601F04AFB014601F0F1
S2144050B005FDF8BD4FF0FF32F3E700BF2DE9F8439A
S2144050C020F00044B4F1485F06460F4649DA01F046
S2144050D01DFE002800F09D803146304601F03AFC27
S2144050E04E49054601F036FC4D4901F02BFB29465A
S2144050F001F030FC4B4901F023FB294601F02AFC25
S214405100494901F01FFB294601F024FC474901F0BC
S21440511017FB294601F01EFC454901F013FB2946C2
S21440512001F018FC80464FF07C51284601F012FCF6
S21440513041460446284601F00DFC394605463046B1
S21440514001F008FC0146284601F0FAFA01462046DE
S21440515001F0F6FA01464FF07E5001F0F1FABDE854
S214405160F883014601F0F6FB2C49054601F0F2FBB8
S2144051702B4901F0E7FA294601F0ECFB294901F0FA
S214405180DFFA294601F0E6FB274901F0DBFA29461B
S21440519001F0E0FB254901F0D3FA294601F0DAFB9D
S2144051A0234901F0CFFA294601F0D4FB214B9C421B
S2144051B08046B8DD204B9C4227DC04F17F442146E4
S2144051C04FF07E5001F0BCFA81464FF07C512846A5
S2144051D001F0C0FB214601F0B3FA4146044628469A
S2144051E001F0B8FB39460546304601F0B3FB0146B0
S2144051F0284601F0A5FA0146204601F0A1FA0146EC
S214405200484601F09DFABDE8F883DFF834900B4C31
S214405210DBE74FF07E50BDE8F88300BF4ED747AD82
S214405220F6740F317CF29334010DD037610BB63AE9
S214405230ABAA2A3D9999993E0000483F0000903E0F
S2144052400000383F2DE9F04FDDB0904C0893013B0D
S2144052500193D31E48BF131D669D0791DB1023EABA
S214405260E37354F82540099319460133A2EBC30370
S2144052700594019A0493059B02909C18A1EB0206A4
S21440528017D43444002501341FAFDDF89C8108E074
S21440529058F8260001F00AFB0136A64247F8040FEC
S2144052A007D0002EF4DA01362846A64247F8040F07
S2144052B0F7D1059B002B28DB089B9E00029B351FE1
S2144052C01D4420AB1E44059B48AA4FF0000902EB44
S2144052D0830847AF019B002BC0F2B982029BB346BE
S2144052E01C1FCA465BF8041D54F8040F01F032FB3D
S2144052F00146504601F026FAAC428246F2D147F8C3
S21440530004AF474506F10406E4D105980899029C87
S2144053106FF04042034613449B000A440DF1300AA6
S214405320191F04EB820553440AEB01020A920B93C1
S21440533080464FEA88035CAA0393D318B8F1000F5F
S21440534053F8509C22DD02EB8804543C0BAE47AF2A
S2144053504FF06E51484601F0FDFA01F0D7FC01F0DF
S214405360A5FA4FF08741834601F0F4FA01464846D5
S21440537001F0E6F901F0CAFC54F8041946F8040FA7
S214405380584601F0DFF9BC428146E1D1049E4846CA
S214405390314600F0BBFC4FF07851044601F0DAFA93
S2144053A000F06EFC4FF0824101F0D4FA01462046F0
S2144053B001F0C6F9044601F0A9FC8146069001F0CA
S2144053C075FA0146204601F0BBF9002E074640F329
S2144053D0E68008F1FF31C6F108035AF8212042FA68
S2144053E003F000FA03F3D31A4A46C6F10704024410
S2144053F04AF82130069243FA04F4002C5BDD069B03
S214405400B8F1000F03F10103069340F33B82DAF84C
S2144054100060002E40F09482B8F1010F40F35582B0
S2144054205246012352F8046F002E00F04A82591C5F
S214405430C6F5807688454AF8236014DD5AF8212060
S2144054400233C2F1FF0298454AF821200BDD039A49
S21440545052440AEB830391461A68C2F1FF0243F8AE
S214405460042B4B45F8D1049B002B11DD049B012BEC
S2144054704FF0010640F00E8208F1FF325AF8223013
S21440548003F07F034AF822300EE200BFA8C4400073
S214405490022C10D139464FF07E5001F051F90746A4
S2144054A004994FF07E5000F031FC0146384601F03A
S2144054B047F9022407460021384601F0DFFB002862
S2144054C000F08380059B08F1FF37BB420FDC08F1F4
S2144054D08043013B0B980AEB8303002253F80419E0
S2144054E0834242EA0102F9D1002A40F09D80059BA2
S2144054F0013B5AF82330002B40F0F4810A9A0123EE
S21440550052F8041901330029FAD043441A46069348
S21440551008F10103934237DC0899099A01EB080722
S21440552020A901EB870706999E1801EB020906F1B0
S2144055308046679A013E02EB860648AA02EB83083D
S214405540679B03EB8903039356F8040F01F0AEF90B
S214405550019B47F8040B002B19DB029BBB461C1F24
S2144055604FF000095BF8041D54F8040F01F0F2F9FF
S2144055700146484601F0E6F8AC428146F2D1039B2C
S21440558048F8049B9E42DFD1DDF81880D1E6039BA5
S2144055904FF000099E4248F8049BD5D1F4E705D168
S2144055A008F1FF335AF82340241226E74FF07C5187
S2144055B001F082FB002840F0538104460021384623
S2144055C001F05CFB00287FF47DAF049E38467142B4
S2144055D000F09CFB4FF08741A146044601F06CFB6F
S2144055E0002800F08D814FF06E51204601F0B2F950
S2144055F001F08CFB01F05AF94FF08741054601F067
S214405600A9F90146204601F09BF801F07FFB4AF8D5
S2144056102800284601F07AFB08F101073346083394
S21440562004934AF8270012E0049A5AF82730083ABA
S214405630A14604925BB907F18043013B0AEB830322
S21440564053F80419013F083A0029F9D00492049906
S2144056504FF07E5000F05AFB002F0446C0F25C81AB
S214405660BB0048A91A1D01EB0308019302924FF0B4
S2144056706E560AEB020B08F104055BF8040D01F0C8
S21440568015F9214601F066F9314645F8040D2046E5
S21440569001F060F9D3450446EFD10026DDF814B09A
S2144056A00397A8F10408B246BBF1000FB8BF002527
S2144056B015DBA54EA54847460025002403E0544583
S2144056C00DDC56F8040F57F8041F01F043F9014665
S2144056D0284601F037F80134A3450546EFDA5CABBF
S2144056E003EB8A03A8F1040843F8A05C46AB4345A5
S2144056F00AF1010AD8D1669B039F032B5AD8DFE8EC
S21440570003F08E5F5F02002F40F30481019A5CA98C
S2144057108B1834AC53F8A06CA51855F804AC314639
S214405720504601F00FF880460146504601F008F812
S214405730314601F007F8286045F8048DAC424646ED
S214405740EBD1012F40F3E680019A5CA98B181444F4
S21440575053F8A06C25460DF1D40A55F8048C314612
S214405760404600F0EFFF07460146404600F0E8FF9F
S214405770314600F0E7FF286045F8047DAA453E46DE
S214405780EBD10020043436AD54F8041D00F0DAFFA7
S214405790A542F9D1B9F1000F00F0B980349A359B93
S2144057A000F1004002F1004203F10043079CA06074
S2144057B022606360069B03F007005DB0BDE8F08F93
S2144057C0019C34AD04342C44002054F8041D00F0F1
S2144057D0B9FFAC42F9D1B9F1000F00F08580079AC5
S2144057E000F1004301461360349800F0A9FF002FF3
S2144057F00BDD34AD0124013455F8041F00F0A2FF40
S214405800A742F8DAB9F1000F01D000F10040079B3B
S2144058105860069B03F007005DB0BDE8F08F029B22
S21440582034AD2B4400201C4654F8041D00F08AFF7B
S214405830A542F9D1B9F1000F01D000F10040079B15
S2144058401860069B03F007005DB0BDE8F08FCA46BF
S21440585047F804AF474506F104067FF43BAD54E5F0
S214405860069BB8F1000F03F101030693C8BF02245C
S2144058703FF7CDAD39464FF07E5000F061FF022431
S214405880074618E6049B002B22DD0026049B012BCE
S2144058903FF4F2AD022B07D108F1FF325AF822301E
S2144058A003F03F034AF82230022C7FF404AE394618
S2144058B04FF07E5000F044FF0746002E3FF4FBAD0D
