S00D00004F4C4544312E73726563C2
S214400000C02B4020911040008D1040008D104000C5
S2144000108D1040008D1040008D1040000000000004
S2144000200000000000000000000000008D104000AE
S2144000308D104000000000008D1040008D104000E4
S2144000408D1040008D1040008D1040008D104000F7
S2144000508D1040008D1040008D1040008D104000E7
S2144000608D10400000000000B50E4000C90E400054
S214400070DD0E40008D1040008D1040008D10400079
S214400080F10E4000050F40008D1040008D104000DE
S2144000908D1040008D1040008D1040008D104000A7
S2144000A08D1040008D1040008D1040008D10400097
S2144000B08D1040008D1040008D1040008D10400087
S2144000C08D1040008D1040008D1040008D10400077
S2144000D0000000008D104000000000008D10400021
S2144000E08D1040008D1040008D1040008D10400057
S2144000F08D1040008D1040008D1040008D10400047
S2144001008D1040008D1040008D1040008D10400036
S2144001108D104000000000000000000000000000BD
S2144001208D1040008D1040008D1040008D10400016
S2144001308D104000000000008D1040008D104000E3
S21440014010B5054C237833B9044B13B10448AFF3CC
S21440015000800123237010BD8C0840200000000062
S214400160983B40000C4B43B10C480D4910B5AFF3DB
S21440017000800C48036823B910BD0A48036833B9A9
S2144001807047094B002BF7D0BDE810401847064B88
S214400190002BF5D0184700BF00000000983B4000F9
S2144001A090084020983B4000000000002DE9F041B8
S2144001B080B90C469046002A0FDD8F18084E094D30
S2144001C0306821462B6898470134BC42F8D14046F7
S2144001D0BDE8F0814FF0FF38F9E78046F7E700BF0B
S2144001E0680B4020600B40200138022815D82DE9C6
S2144001F0F0410E4614469AB10D46DFF838800C4F53
S214400200D8F8000015F8011B3B68984700280ADB21
S214400210A81B013CF4D1BDE8F0814FF0FF30704799
S2144002201046BDE8F0814FF0FF30BDE8F08100BFDA
S214400230640B4020680B4020034B1B6843F480232C
S2144002401943016000207047A808402082688368F0
S2144002509A4203D0826883689342FBD1184670471F
S21440026008B5074B984203D0064B984204D008BDC9
S2144002701520054B984708BD2A20034B9847F6E7BC
S214400280008000400080054039104000436823F459
S214400290702343604368090401F4702119434160A8
S2144002A0704730B443F69924056915F0020F03D120
S2144002B0013CF9D101200CE0446814F0020F06D04E
S2144002C0120402F4702211430BB141F08071C160F8
S2144002D0002030BC704732B900EB8100036B23F03E
S2144002E001030363704700EB8100036B43F0010397
S2144002F00363704732B900EB8100036B23F00203BF
S2144003000363704700EB8100036B43F00203036313
S2144003107047042A03D06AB1082A16D0704700EB0B
S2144003208100036B23F008030363036B43F004036D
S2144003300363704700EB8100036B23F008030363FD
S214400340036B23F004030363704700EB8100036BE9
S21440035043F008030363E1E700EB81010B6B23F0F6
S214400360F0030B630B6B1A430A637047431E194432
S214400370B1FBF0F0431EFE2B94BF00B24FF0FF30AF
S21440038070477AB110B4144600EB81010B6B23F42E
S2144003907F430B630A6B42EA04220A6300205DF83F
S2144003A0044B70474FF0FF307047436913F0020F1D
S2144003B002D0C1610020704701207047436913F0A6
S2144003C0010F03D083690B700020704701207047EF
S2144003D010B40B01934214D9C9004B0803EBC20278
S2144003E0B2FBF1F2D3085C1E4FF6FE718C4201D987
S2144003F0012017E0416841F4002141600CE00120F3
S21440040010E0590801EBC202B2FBF3F2D3085C1EBF
S2144004104FF6FE718C42F2D8120402F4E0221A43E0
S214400420026200205DF8044B70470000084BC0F89D
S214400430E4300023436043628362882303602423BE
S21440044003604FF4807303604FF4002303607047EB
S2144004500041535570B505460C4616460F4B984717
S21440046000220F4B1A60A4B13246216828460D4B35
S2144004709847024678B96368A1680B4321690B43E5
S214400480E1680B4306490B6069680B436B60104696
S21440049070BD0122FBE70122F9E700BF2D044000B2
S2144004A0AC084020D103400040230360704710232F
S2144004B003607047436913F0020F04D0C1F308018C
S2144004C0C1610020704701207047436913F0010F57
S2144004D005D08369C3F308030B60002070470120F2
S2144004E070470000014B1860704700BFB0084020BE
S2144004F0024B1B6803EBC01042547047B0084020C4
S214400500024B1B6803EBC010405C7047B0084020AD
S2144005102DE9F0478418802C02DDC0F18004E2B259
S21440052022B3CD08A1EBC501012606FA01F1CEB2F1
S214400530012B1DD0002B35D0022B17D10138C7B266
S214400540D419E4B2DFF890A04FF00009DFF88C80B1
S21440055021462846D04786EA00024B46D2B221467C
S2144005602846C047013CE4B2BC42F1D1BDE8F08722
S2144005700138C7B2D419E4B2DFF85CA04FF00009E6
S214400580DFF8588021462846D04746EA00024B46C8
S214400590D2B221462846C047013CE4B2BC42F1D123
S2144005A0BDE8F0870138C7B2D419E4B2DFF8288036
S2144005B0CE43DFF8289021462846C04706EA000288
S2144005C00023D2B221462846C847013CE4B2BC428A
S2144005D0F1D1BDE8F08700BF110840000D0740008C
S2144005E02DE9F8439DF820708BB11C469046064690
S2144005F04D1EEDB22C44E4B2DFF818903B4642461E
S21440060021463046C847013CE4B2AC42F6D1BDE88C
S214400610F88300BF110540002DE9F04F83B0044633
S214400620884691469B465B7A9BF8082000210091BD
S21440063049464046214DA8479BF8003013B103B0C9
S214400640BDE8F08F9BF80820D30812F0070F18BFBC
S21440065001339BF809A09BF80A70E71B17FB0AF7C3
S21440066017FB03F7DBF8043013FA87F71FE0640044
S214400670E4B20135EBB29E4210D9EBB208EB030070
S214400680C0B213F0070F08BF17F8014B14F0800FE5
S214400690EDD0012249460A4B9847E8E709F101099F
S2144006A05FFA89F90AF1FF3A1AF0FF0AC7D09BF8B9
S2144006B00860002EF2D000252C46DEE7E10540001B
S2144006C0AD0740002DE9F843044690461D4689464E
S2144006D00D4F0E4608E06A7A013242445FFA82F8CD
S2144006E0B14614F8013F6BB120780A28F3D00D28A4
S2144006F0F7D02B4642464946B8472B7A99445FFA8C
S21440070089F9EEE7BDE8F8831906400070B504465F
S2144007100D4616461BB90D4B9847B04215D032468B
S214400720294620460A4B984704F00F0040F0B00098
S214400730084CA047C5F3021040F01000A04705F053
S2144007400F00A0473046044B984770BD0105400057
S214400750F10440001D0840003D0A40002DE9F041EC
S2144007600D480E4B98470E4B984740200D4B9847E8
S21440077000254FF001082F460B4E002443463A46CC
S214400780E1B22846B0470134802CF7D10135EDB2AE
S214400790042DF2D1BDE8F081B4084020E5044000C5
S2144007A05D0840001D0840000D074000C3092AD1DF
S2144007B01F2928D82DE9F04114460546CE08A1EB5E
S2144007C0C601012202FA01F75FFA87F80146304671
S2144007D00D4B98470246012C09D064B1022C0ED02E
S2144007E0002329463046094CA047BDE8F08148EA38
S2144007F00002D2B2F4E720EA0702D2B2F0E788EA73
S2144008000002D2B2ECE77047010540000D074000F9
S21440081008B5014B984708BD0105400038B5054668
S2144008200822094B5A63094C01212046084B984739
S21440083001231A4629462046064CA0474FF4FD7031
S214400840054B984738BD00BF00100E400080004062
S2144008508D024000A3024000010040202DE9F843ED
S214400860664D4FF400362E61C5F8A060644B0827ED
S2144008701F61C3F8A0706E66C5F890606E656E62C4
S214400880C5F880602A6F22F400322A676A6F22F425
S21440089000326A675F66C3F890705F655F62C3F850
S2144008A080701A6F22F008021A675A6F22F0080208
S2144008B05A671F602E601F632E63DFF87C8100231B
S2144008C04FF480024FF0805140464E4CA0470023E4
S2144008D04FF400124FF080514046A04700234FF09F
S2144008E000724FF080514046A04700234FF48002EC
S2144008F04FF080514046A04700234FF400124FF07F
S21440090080514046A04700234FF000724FF0805180
S2144009104046A0473C4C4FF00209C4F800904FF0C8
S2144009208008C4F80080636843F0010363603A4679
S21440093001212046354B9847002201212046344B62
S2144009409847002201212046324B9847636823F09F
S214400950020363600022012120462F4B98476368BC
S21440096023F080036360636843F0100363602B49A1
S2144009702B482C4B9847C2B2012120462A4B984719
S21440098020462A4B9847012323606E6340F6B830D2
S214400990274CA0472E6340F6B830A0472E63A820C9
S2144009A0244CA0471F20A047D320A0470020A047A4
S2144009B04020A047A120A047C820A047DA20A04753
S2144009C04846A0478120A0478F20A047A420A047A4
S2144009D0A620A047D520A0474046A0478D20A04748
S2144009E01420A047DB20A0474020A047D920A0479E
S2144009F0F120A047AF20A047BDE8F88300120E4084
S214400A0000100E40250D40000080004013034000BB
S214400A10D7024000F50240005903400080D1F0085C
S214400A2080841E006D034000830340006102400046
S214400A30010040201D08400000140E4038B5054611
S214400A400822094B1A63094C01212046084B984757
S214400A5001231A4629462046064CA0474FF4FD700F
S214400A60054B984738BD00BF00100E400080004040
S214400A708D024000A30240000100402010B51048FF
S214400A80104B98473E2100200F4B98470F4CA047ED
S214400A900028FCD00E4B98470E4A0F4B9A620F4CDC
S214400AA0A0470028FCD002200D4B984700200D4B55
S214400AB098470D4B98470248024B984710BD00BFD9
S214400AC000A3E11165124000B50F40000910400038
S214400AD019104000013F182000060E402910400023
S214400AE0190F4000510F400059114000F8B54FF41F
S214400AF00042484B5A60BFF34F8FBFF36F8F464B51
S214400B000022C3F850225A6942F400325A61BFF3B9
S214400B104F8FBFF36F8FD3F88070C7F34E3607F012
S214400B2007000430C7F3C907B7FA87FE0EF01F0E5A
S214400B30BFF34F8F4FF0FF3404FA00FC06FA00F084
S214400B4004FA0EF407FA0EFE1D463A46734640EA8D
S214400B500301C5F86012013A2344B2F1FF3FF6D1D3
S214400B60013E6044B6F1FF3FEFD1BFF34F8F2A4BB3
S214400B705A6942F480325A61BFF34F8FBFF36F8F8A
S214400B80264A27495160A1F580715160BFF34F8FC7
S214400B90BFF36F8FD3F8902222F00102C3F8902261
S214400BA0D3F8942222F00102C3F89422BFF34F8F69
S214400BB0BFF36F8F0A201B4CA0470B20A0470C208A
S214400BC0A0471020A0471120A047174B4FF4807233
S214400BD01A61C3F8A0201A63A3F580634FF400623D
S214400BE05A61C3F8A0205A66C3F890205A651A6224
S214400BF0C3F88420196F21F400611967596F21F4F6
S214400C0000615967C3F8C020C3F8D420C3F8B020A9
S214400C10F8BD00BF50180E4000ED00E0000C0E403E
S214400C200C08005A3910400000120E40016370470D
S214400C30416370474264B1F1C05F3AD013D8B1F116
S214400C40006F25D0B1F1805F0AD1036F134303676D
S214400C50436F416F0B4023EA02034367426070478D
S214400C600029FBD17047B1F1205F21D009D8B1F1FE
S214400C70005FF3D1036F13430367436F1343436728
S214400C80ECE7B1F1405F13D0B1F1605F10D0E5E71B
S214400C9010B4016F046FD34321401C4619400167CE
S214400CA0436F416F0B402340436742605DF8044BFF
S214400CB07047036F016F0B4023EA02030367436FDD
S214400CC013434367CAE7416412F0010F0DD1016632
S214400CD012F00A0F0BD0016212F0020F09D112F087
S214400CE0080F08D0C0F8841005E04166F0E741627E
S214400CF0F2E7C0F8801041610160704710B4019C73
S214400D0041644CB901664BB101654AB94163016122
S214400D1001605DF8044B70474166F4E74165F4E7CF
S214400D200163F4E770B582B0054616461C46B1F13D
S214400D30005F14D00AD9B1F1405F24D0B1F1605FB2
S214400D4021D0B1F1205F17D000201AE0B1F1805FCA
S214400D5005D0B1F1C05F02D0B1F1006FF4D1324698
S214400D602846114B984714F0010F02D12E660120F9
S214400D7007E06E66012004E01A4631460B4B984762
S214400D80012002B070BD04F001030093C4F3800359
S214400D90B1F1605F14BF0022012231462846044C60
S214400DA0A0470120EDE700BF350C4000C70C4000CF
S214400DB0FD0C400012F0100F12D0C0F8B01012F028
S214400DC0200F07D0C0F8D41012F0400F05D0C0F85E
S214400DD0C0107047C0F8D010F6E7C0F8C41070478F
S214400DE0C0F8B410704701647047C06C7047806CA0
S214400DF0704700002DE9F041044688460E4B984760
S214400E00054620460D4B9847054013D00C4C04F140
S214400E10600603E0B4420DD010345DB12068404512
S214400E20F8D161682942F5D0E3689847636825EAB7
S214400E300305EFE7BDE8F081EB0D4000EF0D400005
S214400E40B40A4020F8B5184C2668062E2AD84FF02B
S214400E50000C6446154F04E00134E4B2A446A642B2
S214400E6009D3A64625017D598D42F5D107EB0415D9
S214400E706D689542F0D10D4D4FEA0E1E05EB0E04FF
S214400E8045F80E106260A3600699E160013666453B
S214400E9005D011461A46064B98470020F8BD024931
S214400EA00E60F6E70120F8BD240B4020B40A40202F
S214400EB0B50D400008B50A210148024B984708BDC9
S214400EC0000E0E40F50D400008B50B210148024BC0
S214400ED0984708BD00100E40F50D400008B50C219F
S214400EE00148024B984708BD00120E40F50D4000E1
S214400EF008B510210148024B984708BD00140E4023
S214400F00F50D400008B511210148024B984708BD31
S214400F1000160E40F50D4000032811D0042812D0CC
S214400F2002280CBF4FF480710021084A136B23F44B
S214400F3040730B431363936E13F0080FFBD0704758
S214400F404FF44071F1E74FF40071EEE700060E40B3
S214400F50174A136B23F0700318431063936E13F015
S214400F60080F0AD14FF4805311498A6E12F0080FC9
S214400F7003D1013BF9D1012070470D4A136B23F092
S214400F80030343F002031363936E13F0080F0AD172
S214400F904FF4805306498A6E12F0080F05D1013B84
S214400FA0F9D101207047002070470020704700BFED
S214400FB000060E40A0B90E48036A090289B20D4ADF
S214400FC01A400D4B1343194301620246936E13F0C9
S214400FD0010FFBD0064A116A084B0B431362704759
S214400FE003490B6A064A1A40064B13430B62704786
S214400FF000060E40FCFFC8FF010037000000370126
S214401000FCFFC8FE02003701024B986E00F48030A9
S214401010704700BF00060E404FF00052014B9A62E8
S214401020704700BF00060E40024B986E00F002006C
S214401030704700BF00060E403F281ED81F280CD819
S214401040114B9A6901238340934318D0012303FA36
S21440105000F00D4B18610020704720380A4BD3F83B
S21440106008210123834093430BD0012303FA00F069
S214401070054BC3F800010020704701207047002050
S21440108070470020704700BF00060E40FEE7000095
S21440109000B583B0254B264A9A4210D0254B234AAA
S2144010A09A420CD2013B9B1A23F0030304331344A9
S2144010B01F4951F8040B42F8040B9A42F9D11E4BD3
S2144010C01E4A9A420AD2013B9B1A23F0030304337A
S2144010D01344002142F8041B9342FBD1184A194B93
S2144010E023F07F039360EFF31083B3FA83F35B0937
S2144010F0019372B6BFF35F8F0022134B1A700199AB
S214401100124A136843F470031360BFF34F8FBFF364
S2144011106F8F29B101220C4B1A70BFF35F8F62B6F6
S2144011200B4B98470B4B9847FEE700BF000040200C
S214401130983B40008C084020BC0B40208C08402048
S21440114000ED00E0000040001800402088ED00E080
S2144011501D204000011640003B4B1B6B03F0030371
S214401160012B1DD083B1022B36D0374B1B6B03F0BF
S2144011707003702B5FD0344B1A6B3449C2F30212A3
S2144011800B68D3400B607047314B5B6913F0800FA0
S21440119014BF4FF400424FF4FA422C4B1A60E4E777
S2144011A0294B1B6A13F0807F03D02A4A274B1A60CC
S2144011B0DBE7294A254B1A60234B1B6A03F0700372
S2144011C0102B05D0202BD0D1224A204B1A60CCE7DA
S2144011D0224A1E4B1A60C8E71B4B1B6A13F0807FDF
S2144011E016D01C4A194B1A60174B1B6B03F00303AF
S2144011F0022BBAD1144A916A926A1448C1F30A4142
S214401200036801FB0333D2B2B3FBF2F30360ACE7EF
S214401210114A0E4B1A600C4B1B6A03F07003102BDE
S21440122005D0202BE0D10B4A084B1A60DCE70B4A6E
S214401230064B1A60D8E7054A13680949A1FB031311
S2144012405B081360704700BF00060E401C0040203D
S21440125010180E40001BB70000093D0000127A002F
S214401260ABAAAAAA164B984213D9164B984215D940
S214401270154B984216D9154B984217D9144B98429D
S21440128018D9144B984294BF134A144A144B1A6008
S21440129070474FF08062124B1A607047114A104BED
S2144012A01A607047104A0E4B1A6070470F4A0C4B34
S2144012B01A6070474FF00422094B1A60704700BF0F
S2144012C0BFF35E017FE7BD023FDB1C04FFCE7B051C
S2144012D0BFC2DA067FB639080005000400060004DF
S2144012E0000C0E400001000400020004000300044D
S2144012F00A4B1B6853B1094B1B681A1808499142A0
S21440130008DB1046054A106018467047054A034BEE
S2144013101A60F0E74FF0FF30704700BF280B4020C0
S214401320FCFF4520C02D40204FF0FF3070474FF463
S21440133000534B6000207047002070470122014B4D
S2144013401A707047900B4020034A1378B3FA83F321
S2144013505B091370704700BF890B4020F0B583B01F
S21440136005460C46002301932A4B984213D02A4B3D
S214401370984218D0294B98421DD0294B9D4222D0E6
S214401380284B9D4227D0284B9D422ED0274B9D422E
S21440139035D003B0F0BD1F46254E21463846B047EF
S2144013A00028FAD1E9E71F46214E21463846B04785
S2144013B00028FAD1E4E71F461D4E21463846B0477E
S2144013C00028FAD1DFE71F46194E21463846B04777
S2144013D00028FAD1DAE71E46164D01A93046A8473E
S2144013E00028FAD1019B2370D3E71E46114D01A970
S2144013F03046A8470028FAD1019B2370C9E71E460D
S2144014000C4D01A93046A8470028FAD1019B23700D
S214401410BFE700BF00080E40000A0E40001A0E400C
S214401420001C0E40004002400080024000C00240C7
S214401430BD034000CB04400070B50C462A4B984292
S21440144013D02A4B984219D0294B98421FD0294B8B
S214401450984225D0284B98422BD0284B984231D0E2
S214401460274B984237D0002070BD1E46254D21465A
S2144014703046A8470028FAD1012070BD1E46214DAF
S21440148021463046A8470028FAD1012070BD1E46A6
S2144014901C4D21463046A8470028FAD1012070BD91
S2144014A01E46184D21463046A8470028FAD101204E
S2144014B070BD1E46144D21463046A8470028FAD136
S2144014C0012070BD1E46104D21463046A8470028D4
S2144014D0FAD1012070BD1E460B4D21463046A84726
S2144014E00028FAD1012070BD00080E40000A0E40C8
S2144014F0001A0E40001C0E40004002400080024091
S21440150000C00240AB034000B5044000054B03F169
S21440151020015A6843F8042B8B42FAD1014B1862DB
S214401520704700BF200040202DE9F04F83B01020C8
S214401530294FB847294C01234FF080524FF0205195
S2144015402046274EB047274B009350234FF08052FB
S21440155010212046DFF89CB0D8474FF080512046F7
S214401560DFF894A0D0472046DFF89090C8471E4D3D
S2144015704FF480332B604FF0800885F810830A20A4
S214401580B847002301224FF060511848B04710205A
S214401590B84700234FF080424FF040512046B047B6
S2144015A00A20B847002340224FF020510F48B0474A
S2144015B00F4B009340231A460A210C48D847402137
S2144015C00A48D0470948C8474FF480632B6085F8DF
S2144015D00A8303B0BDE8F08F3910400000140E4077
S2144015E0250D40003D13400000E100E0000E0E4097
S2144015F049134000450E4000E70D4000EB0D40000B
S2144016002DE9F04F89B0604B9847604B9847604D46
S214401610604B1D60604A614B1A60614A614B1A60BC
S2144016204FF4E1330293C02303934FF400630493D3
S2144016300024059406940E205B4B98475B4A02A90B
S21440164028465B4B984728465A4B984728465A4B5D
S21440165098475A4E336821469868594DA84733688C
S21440166021465868A847336821469868A847554B8E
S2144016709847554B9847DFF8B091544DDFF8AC810A
S214401680534F01E05348C847534C4FF080412046E3
S214401690524B98474FF4FD70C8474FF08041204664
S2144016A04F4B98472B78002BFCD001214D484E4B92
S2144016B098472B78DBB2012BFBD04A484B4B9847D8
S2144016C04B4B18604B4CA0472DA3D3E900234A4E02
S2144016D0B04782468B46494B1868A04702460B46A1
S2144016E050465946464CA047464B98470446464BBC
S2144016F018604346002211464448B84743460C22E9
S21440170000214348B8474346142228214148B84759
S2144017104FF4AA7303FB04F33F4A82FB0312D81725
S214401720C0EB623020EAE070B0F5C87FA8BF4FF447
S214401730C8703A4B9847002100910A23802208201F
S214401740374CA047374E6924DFF8E4B0DFF8E4A012
S21440175056F8043DC3EBC3038BFB0321DA17C2EBF9
S2144017602112C2F107024346D2B221465046B8473C
S2144017700A3CE4B20F2CEBD184E700BFAFF3008005
S2144017800000000080842E41ED0A40007D0A4000A3
S21440179000800240680B402039144000640B402013
S2144017A05D134000600B40203910400080D1F008A7
S2144017B055044000A9044000AF04400048004020C3
S2144017C0092140005D07400029154000890B402054
S2144017D0C5064000252B4D0000140E402D0C400041
S2144017E0310C400030180E40390240004D02400097
S2144017F06C0B4020DD1A4000A91B400044004020EE
S214401800FD1D4000CD1F40008C0B40205C3B40003F
S214401810603B4000643B4000AD8BDB680D154000EC
S214401820E105400044004020010040200C004020DC
S214401830D34D62106C3B400081F0004102E000BF97
S21440184083F0004330B54FEA41044FEA430594EA3B
S214401850050F08BF90EA020F1FBF54EA000C55EA76
S214401860020C7FEA645C7FEA655C00F0E2804FEA47
S2144018705454D4EB5555B8BF6D420CDD2C4480EA29
S214401880020281EA030382EA000083EA010180EA59
S214401890020281EA0303362D88BF30BD11F0004FA7
S2144018A04FEA01314FF4801C4CEA113102D04042DD
S2144018B061EB410113F0004F4FEA03334CEA133318
S2144018C002D0524263EB430394EA050F00F0A78030
S2144018D0A4F10104D5F1200E0DDB02FA0EFC22FA2B
S2144018E005F2801841F1000103FA0EF2801843FA1F
S2144018F005F359410EE0A5F120050EF1200E012A10
S21440190003FA0EFC28BF4CF0020C43FA05F3C0184D
S21440191051EBE37101F0004507D54FF0000EDCF1C6
S214401920000C7EEB00006EEB0101B1F5801F1BD36F
S214401930B1F5001F0CD349085FEA30004FEA3C0C73
S21440194004F101044FEA445212F5800F80F09A8069
S214401950BCF1004F08BF5FEA500C50F1000041EB6D
S214401960045141EA050130BD5FEA4C0C404141EB71
S214401970010111F4801FA4F10104E9D191F0000F98
S21440198004BF01460020B1FA81F308BF2033A3F11B
S2144019900B03B3F120020CDA0C3208DD02F1140C12
S2144019A0C2F10C0201FA0CF021FA02F10CE002F14D
S2144019B01402D8BFC2F1200C01FA02F120FA0CFC46
S2144019C0DCBF41EA0C019040E41AA2BF01EB04518F
S2144019D0294330BD6FEA04041F3C1CDA0C340EDC8D
S2144019E004F11404C4F1200220FA04F001FA02F3D0
S2144019F040EA030021FA04F345EA030130BDC4F18E
S214401A000C04C4F1200220FA02F001FA04F340EA82
S214401A100300294630BD21FA04F0294630BD94F033
S214401A20000F83F4801306BF81F480110134013D1A
S214401A304EE77FEA645C18BF7FEA655C29D094EA8B
S214401A40050F08BF90EA020F05D054EA000C04BF09
S214401A501946104630BD91EA030F1EBF00210020F4
S214401A6030BD5FEA545C05D14000494128BF41F093
S214401A70004130BD14F580043CBF01F5801130BDF7
S214401A8001F0004545F0FE4141F470014FF0000082
S214401A9030BD7FEA645C1ABF194610467FEA655C33
S214401AA01CBF0B46024650EA013406BF52EA0335D5
S214401AB091EA030F41F4002130BD00BF90F0000FC3
S214401AC004BF0021704730B54FF4806404F13204FF
S214401AD04FF000054FF0000150E700BF90F0000FB8
S214401AE004BF0021704730B54FF4806404F13204DF
S214401AF010F0004548BF40424FF000013EE700BFAF
S214401B0042004FEAE2014FEA31014FEA02701FBF3E
S214401B1012F07F4393F07F4F81F06051704792F010
S214401B20000F14BF93F07F4F704730B54FF460748A
S214401B3001F0004521F0004120E700BF50EA0102D5
S214401B4008BF704730B54FF000050AE050EA010282
S214401B5008BF704730B511F0004502D5404261EBF2
S214401B6041014FF4806404F132045FEA915C3FF433
S214401B70DCAE4FF003025FEADC0C18BF03325FEACC
S214401B80DC0C18BF033202EBDC02C2F1200300FA81
S214401B9003FC20FA02F001FA03FE40EA0E0021FAA6
S214401BA002F11444C1E600BF70B54FF0FF0C4CF490
S214401BB0E06C1CEA11541DBF1CEA135594EA0C0F46
S214401BC095EA0C0F00F0DEF82C4481EA030621EA81
S214401BD04C5123EA4C5350EA013518BF52EA0335BC
S214401BE041F4801143F4801338D0A0FB02CE4FF06E
S214401BF00005E1FB02E506F00042E0FB03E54FF09E
S214401C000006E1FB03569CF0000F18BF4EF0010E95
S214401C10A4F1FF04B6F5007F64F5407404D25FEA91
S214401C204E0E6D4146EB060642EAC62141EA555144
S214401C304FEAC52040EA5E504FEACE2EB4F1FD0C86
S214401C4088BFBCF5E06F1ED8BEF1004F08BF5FEA04
S214401C50500E50F1000041EB045170BD06F00046B6
S214401C6046EA010140EA020081EA0301B4EB5C0463
S214401C70C2BFD4EB0C0541EA045170BD41F480115B
S214401C804FF0000E013C00F3AB8014F1360FDEBF80
S214401C90002001F0004170BDC4F10004203C35DA5C
S214401CA00C341BDC04F11404C4F1200500FA05F3DF
S214401CB020FA04F001FA05F240EA020001F0004280
S214401CC021F0004110EBD37021FA04F642EB0601F6
S214401CD05EEA430E08BF20EAD37070BDC4F10C0420
S214401CE0C4F1200500FA04F320FA05F001FA04F2E4
S214401CF040EA020001F0004110EBD37041F10001D0
S214401D005EEA430E08BF20EAD37070BDC4F12005DA
S214401D1000FA05F24EEA020E20FA04F301FA05F242
S214401D2043EA020321FA04F001F0004121FA04F2EA
S214401D3020EA020000EBD3705EEA430E08BF20EABA
S214401D40D37070BD94F0000F0FD101F000464000F4
S214401D5041EB010111F4801F08BF013CF7D041EA76
S214401D60060195F0000F18BF704703F0004652007A
S214401D7043EB030313F4801F08BF013DF7D043EA4B
S214401D800603704794EA0C0F0CEA135518BF95EA01
S214401D900C0F0CD050EA410618BF52EA4306D1D188
S214401DA081EA030101F000414FF0000070BD50EAA7
S214401DB0410606BF1046194652EA430619D094EA31
S214401DC00C0F02D150EA013613D195EA0C0F05D11B
S214401DD052EA03361CBF104619460AD181EA03016F
S214401DE001F0004141F0FE4141F470014FF0000027
S214401DF070BD41F0FE4141F4780170BD70B54FF0C2
S214401E00FF0C4CF4E06C1CEA11541DBF1CEA135541
S214401E1094EA0C0F95EA0C0F00F0A7F8A4EB050423
S214401E2081EA030E52EA03354FEA013100F088801A
S214401E304FEA03334FF0805545EA131343EA1263E3
S214401E404FEA022245EA111545EA10654FEA002698
S214401E500EF000419D4208BF964244F1FD0404F551
S214401E60407402D25B084FEA3202B61A65EB0305AD
S214401E705B084FEA32024FF480104FF4002CB6EB6A
S214401E80020E75EB030E22BFB61A754640EA0C00EA
S214401E905B084FEA3202B6EB020E75EB030E22BF2A
S214401EA0B61A754640EA5C005B084FEA3202B6EB6B
S214401EB0020E75EB030E22BFB61A754640EA9C002A
S214401EC05B084FEA3202B6EB020E75EB030E22BFFA
S214401ED0B61A754640EADC0055EA060E18D04FEAB8
S214401EE0051545EA16754FEA06164FEAC30343EA58
S214401EF052734FEAC2025FEA1C1CC0D111F4801F25
S214401F000BD141EA00014FF000004FF0004CB6E71D
S214401F1011F4801F04BF01430020B4F1FD0C88BFBC
S214401F20BCF5E06F3FF6AFAEB5EB030C04BFB6EBC7
S214401F30020C5FEA500C50F1000041EB045170BDBA
S214401F400EF0004E4EEA113114EB5C04C2BFD4EBE7
S214401F500C0541EA045170BD41F480114FF0000E6B
S214401F60013C90E645EA060E8DE60CEA135594EAE7
S214401F700C0F08BF95EA0C0F3FF43BAF94EA0C0FEA
S214401F800AD150EA01347FF434AF95EA0C0F7FF45F
S214401F9025AF104619462CE795EA0C0F06D152EAB3
S214401FA003353FF4FDAE1046194622E750EA410697
S214401FB018BF52EA43067FF4C5AE50EA41047FF4A8
S214401FC00DAF52EA43057FF4EBAE12E74FEA41020B
S214401FD012F5001215D211D56FF47873B3EB625236
S214401FE012D94FEAC12343F0004343EA505311F05D
S214401FF0004F23FA02F018BF404270474FF00000EF
S214402000704750EA013005D111F0004008BF6FF02C
S214402010004070474FF00000704700BF70B50F4E4D
S2144020200F4D761BB61018BF002405D0013455F866
S214402030043B9847A642F9D10A4E0B4D761B01F059
S21440204099FDB61018BF002406D0013455F8043B5D
S2144020509847A642F9D170BD70BD00BF803B400096
S214402060803B4000883B4000803B400070B4860781
S21440207046D0541E002A41D0CAB2034602E014F1AC
S214402080FF343BD303F8012B9D07F8D1032C2ED900
S214402090CDB245EA05250F2C45EA054519D903F189
S2144020A010022646103E0F2E42F8105C42F80C5C9A
S2144020B042F8085C42F8045C02F11002F2D8A4F13F
S2144020C0100222F00F0204F00F041032032C1344C7
S2144020D00DD91E462246043A032A46F8045BFAD82F
S2144020E0221F22F003020432134404F003042CB1EE
S2144020F0C9B21C4403F8011B9C42FBD170BC70471C
S21440210014460346C2E700BF00290CBF0222002245
S2144021104FF4806300F000B82DE9F043614C256829
S21440212083B004460F4690461E4615B1AB6B002B57
S21440213064D0B8F1020F06D0B8F1010F00F29F80CC
S214402140002EC0F29C80636ED80734D521462846C0
S21440215000F05AF9216B41B104F14003994202D094
S214402160284600F04BFA00232363B4F90C300022D3
S214402170A26162601A063AD423F44A6323F003034A
S214402180B8F1020FA3811DD001AB6A46214628460E
S21440219000F04CFBA3891843A081002E32D1009E4C
S2144021A0304600F071FB074600286BD0A38943F009
S2144021B08003A38128E0A3899905C7D4A06D00F0C9
S2144021C031FBC3E70025616E002604F1430243F06D
S2144021D002030120A660CE07A381226022616061CF
S2144021E001D498053ED5284603B0BDE8F083216962
S2144021F0284600F003FAB4F90C30BDE7284600F054
S2144022005BF996E7002FCBD0AB6B002B33D0009B0F
S214402210B4F90C2027609E421CBF42F40062A281A3
S214402220B8F1010F04BF42F00102A28192B212F04F
S2144022300803276166610ED0D1071AD5656E7642CF
S214402240002315F00105A661A36009D000252846A5
S21440225003B0BDE8F083A360656E15F00105F5D1C7
S2144022609305C0D4A06D00F0DFFA284603B0BDE861
S214402270F083A660F0E7284600F01EF9C7E74FF067
S214402280FF35B0E7DDF80090B14504D0484600F091
S214402290FBFA074620B9B4F90C304FF0FF3592E709
S2144022A04E4683E748004020024B13B1024800F0F8
S2144022B005B870470000000029254000002301466D
S2144022C01A46184600F010BEB1F90C309AB22DE905
S2144022D0F0410D46110780463AD46A6843F40063DD
S2144022E0002AAB816FDDAC6A002C49D000229BB23D
S2144022F0D8F80060C8F8002013F4805267D02A6DE2
S2144023005F0705D569682B6B521A0BB1EB6BD21A77
S2144023100023E9694046A047441C3CD0B5F90C3040
S2144023202A692A6023F400630022AB81DB046A60DA
S21440233047D4296BC8F8006011B305F140039942B1
S21440234002D0404600F05AF900202863BDE8F081EC
S2144023502E69AEB12C682E6091070CBF6B690023C6
S214402360A41BAB600AE0234632466F6AE9694046E2
S214402370B8470028A4EB0004064404DD002CF2DC39
S2144023800020BDE8F081AB8943F04003AB814FF0BD
S214402390FF30BDE8F081D8F800401D2CF3D8194B2B
S2144023A0E340DB4313F00103EDD1B5F90C206B603D
S2144023B022F400632969AB81DA042960B9D5002C80
S2144023C0B7D12865B5E7EA6B002A8CDCD8E701234D
S2144023D0E9694046A047431C024602D0AB89AC6A36
S2144023E08EE7D8F80030002BF8D01D2B01D0162BE6
S2144023F002D1C8F80060C3E7AB8943F04003AB8125
S214402400BDE8F0810100402038B50D46044608B1CD
S214402410836BBBB1B5F90C0088B16B6EDB0701D49A
S214402420810517D520462946FFF74EFF6B6EDA0723
S214402430044602D4AB899B0507D5204638BD0446E2
S214402440204638BD00F038F8E4E7A86D00F0ECF917
S214402450204638BDA86D00F0E5F9E3E7014900F0F5
S214402460B3B900BFD12F400010B500230446818188
S214402470C281036043608360436603614361836156
S214402480194608225C30FFF7F1FD07480749084A1D
S214402490084B2062E4616162A262E36204F1580084
S2144024A0BDE8104000F0BAB9352E4000592E400025
S2144024B0952E4000B52E400010B50446124800F058
S2144024C0B1F9A26BD2B904F53B731048C4F8E832B0
S2144024D00321C4F8E022E063C4F8E41260680421F3
S2144024E0FFF7C2FF01220921A068FFF7BDFF0222C5
S2144024F01221E068FFF7B8FF0123A3630248BDE856
S214402500104000F091B900BFA00B40205D24400071
S214402510014800F087B900BFB40B4020014800F0E6
S21440252083B900BFB40B402038B50A4C0A4D641B33
S214402530A4100AD004F18043013B05EB8305013C1F
S21440254055F804399847002CF9D1BDE8384001F0D9
S2144025501BBB00BF983B4000943B4000F8B5244F5F
S2144025600C46064600F048FCBB685D68C4F57E61D4
S2144025700F3125F00305294421F47F6121F00F0136
S214402580A1F58054B4F5805F07DB0021304600F0AB
S2144025903FFCBB682B44984204D0304600F032FCE7
S2144025A00020F8BD6142304600F032FC01300DD0CC
S2144025B0104BBA6819682D1B45F001053046091BBB
S2144025C05560196000F01EFC0120F8BD0021304621
S2144025D000F01EFCBA68831A0F2BDEDD064C054958
S2144025E0246843F00103001B53600860D5E700BF32
S2144025F07C0440202C0B402084084020002944D0F6
S2144026002DE9F0410D46804600F0F6FB55F8047C77
S214402610694927F00103A5F10804E2188E6850685E
S214402620B24220F003005ED0FE0750600BD455F84F
S214402630087CE41B01F1080EA56875453B446DD047
S214402640E768EF60BD6015186D68ED073ED543F04E
S21440265001026260E350B3F5007F17D2DB08581CD6
S2144026609A104D6851F83070A7600123934001EBF3
S214402670C0022B43083AE2604B6041F83040FC60B1
S2144026804046BDE8F04100F0BDBB70475A0A042AF8
S21440269052D89A0902F13907FF0002F13805C819E5
S2144026A0CA59083890424FD0516821F003018B42F6
S2144026B032D292689042F7D1C368A060E3609C60D3
S2144026C0C4604046BDE8F04100F09CBB95683B4F77
S2144026D0BD42034440D0D068E86043F001028560C4
S2144026E06260E350B7E7FF07034407D455F8082C69
S2144026F0A41A1344A068E268C2609060304A126828
S21440270043F00100934260608C60B9D32D4B404645
S2144027101968FFF723FFB3E71046CDE7111849685D
S214402720C90744D49168D268CA60034443F00100A4
S21440273091606060E350A3E7142A16D802F15C0764
S214402740FF0002F15B05AAE7AA1001234D689340FB
S2144027502B434B600346B0E743F001024C610C61EB
S214402760E560A5606260E3508AE7542A06D81A0BF3
S21440277002F16F07FF0002F16E0590E7B2F5AA7FFF
S21440278006D8DA0B02F17807FF0002F1770586E7F4
S21440279040F25450824206D89A0C02F17D07FF0060
S2144027A002F17C057BE74FF47E777E2577E743F0A2
S2144027B001016160136063E77C044020840440208C
S2144027C0880840205C0B40202DE9F84310F5387708
S2144027D01FD0884606464FF000097D68BC68013D1C
S2144027E011D4A389012B05F1FF3508D9B4F90E3071
S2144027F001332146304602D0C04749EA00096B1CE7
S21440280004F16804EDD13F68002FE6D14846BDE8A4
S214402810F883B9464846BDE8F88300BF704700BF16
S214402820704700BF704700BF704700BF70B50C468A
S214402830B1F90E10002990B015461E4614DB01AAC9
S21440284000F028FC00280FDB029A02F47042A2F542
S2144028500052B2FA82F252094FF480634FF400609D
S21440286032602B6010B070BDA289002312F0800049
S214402870336004D0402218462A6010B070BD4FF432
S21440288080632B6010B070BD024B0146186800F0A4
S21440289003B800BF480040202DE9F04F01F10B0679
S2144028A0162E83B0054640F29E8036F0070600F1AD
S2144028B0BD80B14200F2BA8000F09EFAB6F5FC7FC9
S2144028C0C0F09382730A00F0B880042B00F279813E
S2144028D0B30903F1390003F1380EC300BF4F3B4440
S2144028E0A3F108015C68A14206D10CE0002A80F200
S2144028F0AA80E468A14206D0636823F003039A1BCB
S2144029000F2AF3DD70463C69DFF8E4E2744500F0D8
S214402910AB81636823F003039A1B0F2A00F3908170
S214402920002AC7F814E0C7F810E080F29D80B3F59F
S214402930007F80F06181DB0803F1010C99107A6812
S21440294057F83C80C4F8088001238B4007EBCC0145
S21440295013430839E1607B6047F83C40C8F80C40B8
S2144029608210012494409C4200F28B801C4206D187
S21440297020F0030064001C4200F10400FAD007EB8C
S214402980C009CC468046DCF80C309C4507D16DE14A
S214402990002A80F27B81DB689C4500F0678159689D
S2144029A021F003018A1B0F2AF2DDD3F80CC0D3F8BE
S2144029B0088000939C19284646F0010642F001051F
S2144029C05E60C8F80CC0CCF808807C613C61C4F8F6
S2144029D00CE0C4F808E065605A5000F013FA009B1B
S2144029E003F108041EE0102920D800F005FA10264E
S2144029F018230220794F3B44A3F108025C689442B6
S214402A0000F03D816368E168A66823F00303234431
S214402A1028465A68F16042F001028E605A6000F023
S214402A20F1F90834204603B0BDE8F08F00240C23AB
S214402A3020462B6003B0BDE8F08F40204FF4007373
S214402A404FF03F0E4AE72344E1685A68A66842F0D2
S214402A500102F16028468E605A6000F0D3F90834CF
S214402A60204603B0BDE8F08F234428465A6842F01B
S214402A7001025A6000F0C6F90834204603B0BDE8AB
S214402A80F08FBC68636823F00308B04504D3A8EB16
S214402A9006030F2B00F38580DFF85891504BD9F88A
S214402AA000201B680132334404EB080A00F05581CD
S214402AB003F580530F3323F47F6B2BF00F0B5946EF
S214402AC0284600F0A5F9411C024600F0FC808245ED
S214402AD000F2F780434B19685944196000F04D8165
S214402AE0D9F8000001301BBFA2EB0A0A5144C9F8CE
S214402AF00020196012F0070100F01581C1F10800AE
S214402B00C1F580510244083102EB0B09C9F30B09A9
S214402B10A1EB0909494628460193009200F078F94E
S214402B20431C9DE80C0000F04381801A484440F066
S214402B3001001968BA604944BC425060196017D019
S214402B40B8F10F0F40F2FB806068A8F10C0222F04B
S214402B50070204EB020E00F001004FF0050C104394
S214402B600F2A6060CEF804C0CEF808C000F2178185
S214402B701D4BBC681A68914288BF19601B4B1A6887
S214402B809142626888BF196022F003029642A2EB27
S214402B90060301D80F2B04DC284600F033F9002446
S214402BA040E7A21943F0010346F001066660284656
S214402BB0BA60536000F026F90834204603B0BDE8FA
S214402BC0F08F142B71D9542B00F2A380330B03F1F2
S214402BD06F0003F16E0EC30080E600BF7C04402009
S214402BE05C0B40202C0B4020540B4020580B4020C0
S214402BF084044020840840205A0A042A5BD9142AB8
S214402C0000F2AE8002F15C01C9005B3207EB010CBA
S214402C107958ACF1080C8C4500F088804A6822F060
S214402C200302934273D289688C45F7D1DCF80C20B6
S214402C307B68E260C4F808C09460CCF80C408FE62D
S214402C40A11946F0010C42F00106C4F804C028461B
S214402C5079613961C1F80CE0C1F808E04E60E25095
S214402C6000F0D0F80834DDE67B6879E608F1010824
S214402C7018F0030F0CF1080C7FF485AE2DE0DC68ED
S214402C80A34208BF02303FF43EAEBBE619441C46A2
S214402C904A68DB6854F8086F42F001024A602846EA
S214402CA0F3609E6000F0AEF8BCE603F15C0003F112
S214402CB05B0EC30012E69A0902F13901C9003832A8
S214402CC0A4E7BC4254D0BC68626822F003025DE7C9
S214402CD059F80839994540F0868010F0030F00F106
S214402CE0FF30F5D17B6823EA04037B6064009C4296
S214402CF03FF6C7AE002C3FF4C4AE1C4240467FF4BD
S214402D003EAE64001C4200F10400FAD037E68C4622
S214402D108CE7B3F5AA7F15D8F30B03F1780003F1DF
S214402D20770EC300DAE54FF48051EDE67B689210EB
S214402D30012101FA02F213437B60624679E70123E0
S214402D40536029E740F25452934222D8B30C03F121
S214402D507D0003F17C0EC300C0E503F1100BAEE628
S214402D60542A29D81A0B02F16F01C9006E324DE77A
S214402D70204B196859441960B2E6CAF30B00002884
S214402D807FF4AEAE08EB0B03BA6843F00103536022
S214402D90EEE67F204FF47E734FF07E0E9EE504F104
S214402DA0080128460093FFF729FC009B1968DFE6D8
S214402DB001204FF00009BCE6B2F5AA7F05D8DA0B31
S214402DC002F17801C900773220E740F254518A4236
S214402DD005D89A0C02F17D01C9007C3216E74FF403
S214402DE07E717E2212E77B6880E7F00806F10803D2
S214402DF000E600BF2C0B40200148FFF713BD00BF84
S214402E00A40B40200148FFF70FBD00BFA40B402095
S214402E1038B5074C0023054608462360FEF768FA97
S214402E20431C00D038BD2368002BFBD02B6038BD38
S214402E30B80B402010B50C46B1F90E1000F054F90E
S214402E40002803DB236D0344236510BDA38923F4C8
S214402E508053A38110BD00BF2DE9F0411646B1F95D
S214402E600C201F46D3050C46054607D500220223F4
S214402E70B1F90E1000F022F9B4F90C20B4F90E1096
S214402E8022F48052A2813B4632462846BDE8F041B5
S214402E9000F014B810B50C46B1F90E1000F00EF95B
S214402EA0A389421C0EBF23F4805343F4805320650D
S214402EB0A38110BDB1F90E1000F078B870B50D467C
S214402EC0084C114606461A46284600232360FDF75E
S214402ED08BF9431C00D070BD2368002BFBD03360B9
S214402EE070BD00BFB80B40202DE9F8432C4D064678
S214402EF0286898460F469146FFF794FC294B1C6875
S214402F00D4F84831002B3ED05A681F2A1CDC02F108
S214402F10010E76B103EB82010124C1F88890D3F804
S214402F20880194402043022EC3F88801C1F80881E6
S214402F3023D00232C3F804E0286843F82270FFF733
S214402F4073FC0020BDE8F883174B0BB34FF4C870F2
S214402F50FFF79AFC0346D8B1D4F848210260002116
S214402F6041600A46C4F848014FF0010EC0F8881187
S214402F70C0F88C11002EDCD0CCE7D3F88C110C4373
S214402F80C3F88C41D5E704F5A673C4F84831BBE7CF
S214402F902868FFF749FC4FF0FF30BDE8F88300BFD4
S214402FA078044020703B40008928400038B5074CE4
S214402FB00023054608462360FEF7B6F9431C00D0BA
S214402FC038BD2368002BFBD02B6038BDB80B4020A3
S214402FD070B559B105460C4610B1836B002B3CD0FA
S214402FE0636ED80705D5B4F90C302BB900263046A9
S214402FF070BDA38999053CD521462846FFF764F95C
S214403000E36A064633B1E169284698470028B8BFC8
S2144030104FF0FF36A3891A0622D4216B41B104F142
S2144030204003994202D02846FFF7E8FA002323637C
S214403030616C21B12846FFF7E1FA00236364FFF78D
S21440304067FA636E0022DB07A2810ED5A06DFFF7FC
S214403050E7FBFFF763FA304670BDFFF72DFABFE790
S21440306021692846FFF7CAFAD7E7A06DFFF7DCFBD1
S214403070ECE7A06DFFF7D6FBB4F90C30002BBBD1C4
S214403080666E16F00106B1D1A06DFFF7CDFB304657
S21440309070BD00BF38B50B46074C0546114618466E
S2144030A000232360FEF743F9431C00D038BD236855
S2144030B0002BFBD02B6038BDB80B402070B50D46BA
S2144030C0084C114606461A46284600232360FEF75B
S2144030D033F9431C00D070BD2368002BFBD033600F
S2144030E070BD00BFB80B402070B50D46084C114669
S2144030F006461A46284600232360FDF757F8431C29
S21440310000D070BD2368002BFBD0336070BD00BF7D
S214403110B80B402000000000000000000000000047
S214403120000000000000000000000000000000005A
S214403130000000003000300030003000300030002A
S21440314000003000300000000000000000000000DA
S2144031506C006C006C006C0000000000000000007A
S21440316000000000000000000000000000002800F2
S21440317028007C00280028007C002800280000004A
S214403180000000000000000010003C00400020004E
S2144031901000080004007800100000000000000046
S2144031A00000000000007C00A400A800500028009A
S2144031B0540094008800000000000000000000005A
S2144031C060009000900090006000940088008800A6
S2144031D0700000000000000000000000100010001A
S2144031E0100000000000000000000000000000008A
S2144031F00000000000000000080010002000200032
S21440320020002000200020001000080000000000E1
S2144032100000000020001000080008000800080019
S21440322008000800100020000000000000002800F1
S21440323010007C0010002800000000000000000085
S2144032400000000000000000000000000000000039
S214403250100010001000FE001000100010000000CB
S2144032600000000000000000000000000000000019
S21440327000000000000000001000300020000000A9
S21440328000000000000000000000000000007C007D
S21440329000000000000000000000000000000000E9
S2144032A000000000000000000000000000003000A9
S2144032B03000000000000000000000000000080091
S2144032C008001000100020002000400040000000D1
S2144032D000000000000000000000780084008C0021
S2144032E09400A400C40084007800000000000000A1
S2144032F000000000000010003000500010001000D9
S214403300100010007C0000000000000000000000DC
S2144033100000700088000800100020004000800078
S214403320F8000000000000000000000000007000F0
S2144033308800080030000800080088007000000080
S21440334000000000000000000000080018002800F0
S21440335048008800FC00080008000000000000004C
S214403360000000000000780080008000F0000800A8
S21440337008000800F0000000000000000000000008
S2144033800000300040008000F00088008800880080
S2144033907000000000000000000000000000F80080
S2144033A008001000100020002000400040000000F0
S2144033B00000000000000000000070008800880048
S2144033C07000880088008800700000000000000040
S2144033D00000000000007000880088008800780028
S2144033E00800100060000000000000000000000020
S2144033F000000000000030003000000000003000F8
S2144034003000000000000000000000000000000047
S2144034100000300030000000000030003000600047
S21440342040000000000000000000000008001000FF
S21440343020004000200010000800000000000000AF
S2144034400000000000000000000000007C000000BB
S2144034507C000000000000000000000000000000AB
S214403460000000004000200010000800100020006F
S2144034704000000000000000000000000000300097
S2144034804800080010002000000000002000000057
S2144034900000000000000000000000003C00420069
S2144034A09A00AA00AA00BE00800078000000000033
S2144034B000000000000010002800280044007C00A7
S2144034C044004400440000000000000000000000EB
S2144034D00000F80084008400F80084008400840023
S2144034E0F8000000000000000000000000003C0063
S2144034F04000800080008000800040003C000000CB
S21440350000000000000000000000F000880084007A
S2144035108400840084008800F00000000000000062
S214403520000000000000F80080008000F0008000EE
S21440353080008000F800000000000000000000004E
S2144035400000F80080008000F800800080008000C6
S21440355080000000000000000000000000003C006A
S2144035604000800080009C0084004400380000003A
S214403570000000000000000000008800880088006E
S214403580F8008800880088008800000000000000DE
S214403590000000000000F80020002000200020006E
S2144035A020002000F800000000000000000000009E
S2144035B00000F8000800080008000800080008009E
S2144035C0F000000000000000000000000000840042
S2144035D088009000A000D00088008400840000008E
S2144035E00000000000000000000080008000800016
S2144035F08000800080008000FC000000000000008A
S2144036000000000000008400CC00CC00B400B400F1
S21440361084008400840000000000000000000000D9
S21440362000008400C400C400A400A40094009400D9
S2144036308C00000000000000000000000000780041
S21440364084008400840084008400840078000000A5
S21440365000000000000000000000F8008400840025
S2144036608400F80080008000800000000000000019
S214403670000000000000780084008400840084007D
S214403680840084007800200018000000000000003D
S2144036900000F800840084008400F800880084005D
S2144036A084000000000000000000000000007C00D5
S2144036B0800080006000180004000400F80000004D
S2144036C000000000000000000000F800200020007D
S2144036D02000200020002000200000000000000005
S2144036E00000000000008400840084008400840001
S2144036F08400840078000000000000000000000005
S21440370000008400840084004800480048003000E0
S21440371030000000000000000000000000008800AC
S214403720A800A800A800A800A8005000500000006C
S21440373000000000000000000000880088005000E4
S2144037402000200050008800880000000000000094
S21440375000000000000088008800880050005000EC
S21440376020002000200000000000000000000000B4
S2144037700000FC000400080010002000400080000C
S214403780FC00000000000000000000007000400048
S21440379040004000400040004000400040004000E4
S2144037A070000000000000004000400020002000A4
S2144037B02000100010001000080008000000000064
S2144037C00000000038000800080008000800080054
S2144037D0080008000800080038000000000000004C
S2144037E01000280044000000000000000000000018
S2144037F00000000000000000000000000000000084
S214403800000000000000000000000000380000003B
S2144038100000000000000000000020001000000033
S2144038200000000000000000000000000000000053
S21440383000000000000000000000700008000800C3
S214403840780088007C0000000000000000000000B7
S214403850800080008000F80084008400840084009B
S214403860F80000000000000000000000000000001B
S2144038700000780080008000800080007800000013
S21440388000000000000000000400040004007C006B
S2144038908400840084008C00740000000000000057
S2144038A00000000000000000000078008400FC00DB
S2144038B0800080007C000000000000000000000047
S2144038C01C0020002000FC002000200020002000DB
S2144038D0FC000000000000000000000000000000A7
S2144038E000007C0084008400840084007C00040087
S2144038F07800000000000000800080008000B800D3
S214403900C40084008400840084000000000000009E
S21440391000000000000010000000700010001000C2
S214403920100010007C0000000000000000000000B6
S21440393000000800000078000800080008000800A2
S21440394008000800080070000000000080008000AA
S214403950800088009000A000D0008800880000000A
S2144039600000000000000000E000200020002000D2
S2144039702000200020002000F8000000000000008A
S21440398000000000000000000000A400FC00A400AE
S214403990A400A400A40000000000000000000000F6
S2144039A0000000000000B800C400840084008400CA
S2144039B0840000000000000000000000000000003E
S2144039C000007800840084008400840078000000B2
S2144039D00000000000000000000000000000B800EA
S2144039E0C400840084008400F8008000800000004A
S2144039F0000000000000000000007C0084008400FE
S214403A00840084007C0004000400000000000000E5
S214403A10000000000000D800600040004000400069
S214403A20F000000000000000000000000000000061
S214403A30000078008000400030000800F0000000E1
S214403A400000000000000000000000002000FC0015
S214403A5020002000200020001C0000000000000085
S214403A600000000000000000000088008800880079
S214403A70880088007C000000000000000000000075
S214403A8000000000000084008400840048004800D5
S214403A9030000000000000000000000000000000B1
S214403AA000008800A800A800A800A8005000000059
S214403AB00000000000000000000000000000880039
S214403AC05000200020005000880000000000000049
S214403AD00000000000000000000084008400480051
S214403AE048003000100020004000000000000000A9
S214403AF0000000000000F800080010002000400011
S214403B00F800000000000000000000001000200048
S214403B102000100020002000100020002000100090
S214403B200000000000000000100010001000100010
S214403B300000000010001000100010000000000000
S214403B4000000000200010001000200010001000B0
S214403B50200010001000200000000000630000005D
S214403B606D00000074656D706F0000002E00000050
S214403B7050004020F8B500BFF8BC08BC9E467047D1
S214403B80A922400065014000F8B500BFF8BC08BC5B
S20C403B909E46704741014000CB
S214403B98BFF35F8F0138FBD170470000000000007C
S214403BA8143140000A0E207D0100000000093D0047
S214403BB801000000010000000100000001000000B4
S214403BC801000000010000000100000001000000A4
S214403BD80100000000800000500040200000000067
S214403BE8000000003C034020A40340200C04402072
S214403BF80000000000000000000000000000000078
S214403C080000000000000000000000000000000067
S214403C180000000000000000000000000000000057
S214403C280000000000000000000000000000000047
S214403C380000000000000000000000000000000037
S214403C480000000000000000000000000000000027
S214403C580000000000000000000000000000000017
S214403C680000000000000000000000000000000007
S214403C7800000000000000000000000000000000F7
S214403C8800000000000000000100000000000000E6
S214403C980E33CDAB34126DE6ECDE05000B000000AB
S214403CA800000000000000000000000000000000C7
S214403CB800000000000000000000000000000000B7
S214403CC800000000000000000000000000000000A7
S214403CD80000000000000000000000000000000097
S2144040080000000000000000940B40200000000064
S214404018000000007C0440207C04402084044020AB
S214404028840440208C0440208C0440209404402083
S214404038940440209C0440209C044020A404402033
S214404048A4044020AC044020AC044020B4044020E3
S214404058B4044020BC044020BC044020C404402093
S214404068C4044020CC044020CC044020D404402043
S214404078D4044020DC044020DC044020E4044020F3
S214404088E4044020EC044020EC044020F4044020A3
S214404098F4044020FC044020FC0440200405402052
S2144040A8040540200C0540200C05402014054020FF
S2144040B8140540201C0540201C05402024054020AF
S2144040C8240540202C0540202C054020340540205F
S2144040D8340540203C0540203C054020440540200F
S2144040E8440540204C0540204C05402054054020BF
S2144040F8540540205C0540205C054020640540206F
S214404108640540206C0540206C054020740540201E
S214404118740540207C0540207C05402084054020CE
S214404128840540208C0540208C054020940540207E
S214404138940540209C0540209C054020A40540202E
S214404148A4054020AC054020AC054020B4054020DE
S214404158B4054020BC054020BC054020C40540208E
S214404168C4054020CC054020CC054020D40540203E
S214404178D4054020DC054020DC054020E4054020EE
S214404188E4054020EC054020EC054020F40540209E
S214404198F4054020FC054020FC054020040640204D
S2144041A8040640200C0640200C06402014064020FA
S2144041B8140640201C0640201C06402024064020AA
S2144041C8240640202C0640202C064020340640205A
S2144041D8340640203C0640203C064020440640200A
S2144041E8440640204C0640204C06402054064020BA
S2144041F8540640205C0640205C064020640640206A
S214404208640640206C0640206C0640207406402019
S214404218740640207C0640207C06402084064020C9
S214404228840640208C0640208C0640209406402079
S214404238940640209C0640209C064020A406402029
S214404248A4064020AC064020AC064020B4064020D9
S214404258B4064020BC064020BC064020C406402089
S214404268C4064020CC064020CC064020D406402039
S214404278D4064020DC064020DC064020E4064020E9
S214404288E4064020EC064020EC064020F406402099
S214404298F4064020FC064020FC0640200407402048
S2144042A8040740200C0740200C07402014074020F5
S2144042B8140740201C0740201C07402024074020A5
S2144042C8240740202C0740202C0740203407402055
S2144042D8340740203C0740203C0740204407402005
S2144042E8440740204C0740204C07402054074020B5
S2144042F8540740205C0740205C0740206407402065
S214404308640740206C0740206C0740207407402014
S214404318740740207C0740207C07402084074020C4
S214404328840740208C0740208C0740209407402074
S214404338940740209C0740209C074020A407402024
S214404348A4074020AC074020AC074020B4074020D4
S214404358B4074020BC074020BC074020C407402084
S214404368C4074020CC074020CC074020D407402034
S214404378D4074020DC074020DC074020E4074020E4
S214404388E4074020EC074020EC074020F407402094
S214404398F4074020FC074020FC0740200408402043
S2144043A8040840200C0840200C08402014084020F0
S2144043B8140840201C0840201C08402024084020A0
S2144043C8240840202C0840202C0840203408402050
S2144043D8340840203C0840203C0840204408402000
S2144043E8440840204C0840204C08402054084020B0
S2144043F8540840205C0840205C0840206408402060
S214404408640840206C0840206C084020740840200F
S21040441874084020FFFFFFFF0000020079
S8044010911A
